{
  "_format": "hh-sol-artifact-1",
  "contractName": "CryptoMembershipNFT",
  "sourceName": "contracts/CryptoMembershipNFT.sol",
  "abi": [
    {
      "inputs": [
        {
          "internalType": "address",
          "name": "_usdtToken",
          "type": "address"
        },
        {
          "internalType": "address",
          "name": "initialOwner",
          "type": "address"
        }
      ],
      "stateMutability": "nonpayable",
      "type": "constructor"
    },
    {
      "inputs": [],
      "name": "ERC721EnumerableForbiddenBatchMint",
      "type": "error"
    },
    {
      "inputs": [
        {
          "internalType": "address",
          "name": "sender",
          "type": "address"
        },
        {
          "internalType": "uint256",
          "name": "tokenId",
          "type": "uint256"
        },
        {
          "internalType": "address",
          "name": "owner",
          "type": "address"
        }
      ],
      "name": "ERC721IncorrectOwner",
      "type": "error"
    },
    {
      "inputs": [
        {
          "internalType": "address",
          "name": "operator",
          "type": "address"
        },
        {
          "internalType": "uint256",
          "name": "tokenId",
          "type": "uint256"
        }
      ],
      "name": "ERC721InsufficientApproval",
      "type": "error"
    },
    {
      "inputs": [
        {
          "internalType": "address",
          "name": "approver",
          "type": "address"
        }
      ],
      "name": "ERC721InvalidApprover",
      "type": "error"
    },
    {
      "inputs": [
        {
          "internalType": "address",
          "name": "operator",
          "type": "address"
        }
      ],
      "name": "ERC721InvalidOperator",
      "type": "error"
    },
    {
      "inputs": [
        {
          "internalType": "address",
          "name": "owner",
          "type": "address"
        }
      ],
      "name": "ERC721InvalidOwner",
      "type": "error"
    },
    {
      "inputs": [
        {
          "internalType": "address",
          "name": "receiver",
          "type": "address"
        }
      ],
      "name": "ERC721InvalidReceiver",
      "type": "error"
    },
    {
      "inputs": [
        {
          "internalType": "address",
          "name": "sender",
          "type": "address"
        }
      ],
      "name": "ERC721InvalidSender",
      "type": "error"
    },
    {
      "inputs": [
        {
          "internalType": "uint256",
          "name": "tokenId",
          "type": "uint256"
        }
      ],
      "name": "ERC721NonexistentToken",
      "type": "error"
    },
    {
      "inputs": [
        {
          "internalType": "address",
          "name": "owner",
          "type": "address"
        },
        {
          "internalType": "uint256",
          "name": "index",
          "type": "uint256"
        }
      ],
      "name": "ERC721OutOfBoundsIndex",
      "type": "error"
    },
    {
      "inputs": [
        {
          "internalType": "address",
          "name": "owner",
          "type": "address"
        }
      ],
      "name": "OwnableInvalidOwner",
      "type": "error"
    },
    {
      "inputs": [
        {
          "internalType": "address",
          "name": "account",
          "type": "address"
        }
      ],
      "name": "OwnableUnauthorizedAccount",
      "type": "error"
    },
    {
      "inputs": [],
      "name": "ReentrancyGuardReentrantCall",
      "type": "error"
    },
    {
      "anonymous": false,
      "inputs": [
        {
          "indexed": true,
          "internalType": "address",
          "name": "owner",
          "type": "address"
        },
        {
          "indexed": true,
          "internalType": "address",
          "name": "approved",
          "type": "address"
        },
        {
          "indexed": true,
          "internalType": "uint256",
          "name": "tokenId",
          "type": "uint256"
        }
      ],
      "name": "Approval",
      "type": "event"
    },
    {
      "anonymous": false,
      "inputs": [
        {
          "indexed": true,
          "internalType": "address",
          "name": "owner",
          "type": "address"
        },
        {
          "indexed": true,
          "internalType": "address",
          "name": "operator",
          "type": "address"
        },
        {
          "indexed": false,
          "internalType": "bool",
          "name": "approved",
          "type": "bool"
        }
      ],
      "name": "ApprovalForAll",
      "type": "event"
    },
    {
      "anonymous": false,
      "inputs": [
        {
          "indexed": false,
          "internalType": "uint256",
          "name": "totalOwner",
          "type": "uint256"
        },
        {
          "indexed": false,
          "internalType": "uint256",
          "name": "totalFee",
          "type": "uint256"
        },
        {
          "indexed": false,
          "internalType": "uint256",
          "name": "totalFund",
          "type": "uint256"
        }
      ],
      "name": "BatchWithdrawalProcessed",
      "type": "event"
    },
    {
      "anonymous": false,
      "inputs": [
        {
          "indexed": false,
          "internalType": "bool",
          "name": "status",
          "type": "bool"
        }
      ],
      "name": "ContractPaused",
      "type": "event"
    },
    {
      "anonymous": false,
      "inputs": [
        {
          "indexed": false,
          "internalType": "bool",
          "name": "isPaused",
          "type": "bool"
        },
        {
          "indexed": false,
          "internalType": "uint256",
          "name": "totalBalance",
          "type": "uint256"
        }
      ],
      "name": "ContractStatusUpdated",
      "type": "event"
    },
    {
      "anonymous": false,
      "inputs": [
        {
          "indexed": true,
          "internalType": "address",
          "name": "to",
          "type": "address"
        },
        {
          "indexed": false,
          "internalType": "uint256",
          "name": "amount",
          "type": "uint256"
        }
      ],
      "name": "EmergencyWithdraw",
      "type": "event"
    },
    {
      "anonymous": false,
      "inputs": [
        {
          "indexed": false,
          "internalType": "uint256",
          "name": "timestamp",
          "type": "uint256"
        },
        {
          "indexed": false,
          "internalType": "uint256",
          "name": "amount",
          "type": "uint256"
        }
      ],
      "name": "EmergencyWithdrawInitiated",
      "type": "event"
    },
    {
      "anonymous": false,
      "inputs": [
        {
          "indexed": false,
          "internalType": "uint256",
          "name": "timestamp",
          "type": "uint256"
        }
      ],
      "name": "EmergencyWithdrawRequested",
      "type": "event"
    },
    {
      "anonymous": false,
      "inputs": [
        {
          "indexed": false,
          "internalType": "uint256",
          "name": "ownerAmount",
          "type": "uint256"
        },
        {
          "indexed": false,
          "internalType": "uint256",
          "name": "feeAmount",
          "type": "uint256"
        },
        {
          "indexed": false,
          "internalType": "uint256",
          "name": "fundAmount",
          "type": "uint256"
        }
      ],
      "name": "FundsDistributed",
      "type": "event"
    },
    {
      "anonymous": false,
      "inputs": [
        {
          "indexed": true,
          "internalType": "address",
          "name": "member",
          "type": "address"
        },
        {
          "indexed": false,
          "internalType": "uint256",
          "name": "refundAmount",
          "type": "uint256"
        }
      ],
      "name": "MemberExited",
      "type": "event"
    },
    {
      "anonymous": false,
      "inputs": [
        {
          "indexed": true,
          "internalType": "address",
          "name": "member",
          "type": "address"
        },
        {
          "indexed": true,
          "internalType": "address",
          "name": "upline",
          "type": "address"
        },
        {
          "indexed": false,
          "internalType": "uint256",
          "name": "planId",
          "type": "uint256"
        },
        {
          "indexed": false,
          "internalType": "uint256",
          "name": "cycleNumber",
          "type": "uint256"
        }
      ],
      "name": "MemberRegistered",
      "type": "event"
    },
    {
      "anonymous": false,
      "inputs": [
        {
          "indexed": true,
          "internalType": "uint256",
          "name": "tokenId",
          "type": "uint256"
        },
        {
          "indexed": false,
          "internalType": "string",
          "name": "newURI",
          "type": "string"
        }
      ],
      "name": "MetadataUpdated",
      "type": "event"
    },
    {
      "anonymous": false,
      "inputs": [
        {
          "indexed": false,
          "internalType": "uint256",
          "name": "planId",
          "type": "uint256"
        },
        {
          "indexed": false,
          "internalType": "uint256",
          "name": "cycleNumber",
          "type": "uint256"
        }
      ],
      "name": "NewCycleStarted",
      "type": "event"
    },
    {
      "anonymous": false,
      "inputs": [
        {
          "indexed": true,
          "internalType": "address",
          "name": "previousOwner",
          "type": "address"
        },
        {
          "indexed": true,
          "internalType": "address",
          "name": "newOwner",
          "type": "address"
        }
      ],
      "name": "OwnershipTransferred",
      "type": "event"
    },
    {
      "anonymous": false,
      "inputs": [
        {
          "indexed": false,
          "internalType": "uint256",
          "name": "planId",
          "type": "uint256"
        },
        {
          "indexed": false,
          "internalType": "string",
          "name": "name",
          "type": "string"
        },
        {
          "indexed": false,
          "internalType": "uint256",
          "name": "price",
          "type": "uint256"
        },
        {
          "indexed": false,
          "internalType": "uint256",
          "name": "membersPerCycle",
          "type": "uint256"
        }
      ],
      "name": "PlanCreated",
      "type": "event"
    },
    {
      "anonymous": false,
      "inputs": [
        {
          "indexed": true,
          "internalType": "uint256",
          "name": "planId",
          "type": "uint256"
        },
        {
          "indexed": false,
          "internalType": "string",
          "name": "imageURI",
          "type": "string"
        }
      ],
      "name": "PlanDefaultImageSet",
      "type": "event"
    },
    {
      "anonymous": false,
      "inputs": [
        {
          "indexed": true,
          "internalType": "address",
          "name": "member",
          "type": "address"
        },
        {
          "indexed": false,
          "internalType": "uint256",
          "name": "currentPlan",
          "type": "uint256"
        },
        {
          "indexed": false,
          "internalType": "uint256",
          "name": "targetPlan",
          "type": "uint256"
        }
      ],
      "name": "PlanUpgradeRequested",
      "type": "event"
    },
    {
      "anonymous": false,
      "inputs": [
        {
          "indexed": true,
          "internalType": "address",
          "name": "member",
          "type": "address"
        },
        {
          "indexed": false,
          "internalType": "uint256",
          "name": "oldPlanId",
          "type": "uint256"
        },
        {
          "indexed": false,
          "internalType": "uint256",
          "name": "newPlanId",
          "type": "uint256"
        },
        {
          "indexed": false,
          "internalType": "uint256",
          "name": "cycleNumber",
          "type": "uint256"
        }
      ],
      "name": "PlanUpgraded",
      "type": "event"
    },
    {
      "anonymous": false,
      "inputs": [
        {
          "indexed": true,
          "internalType": "address",
          "name": "newPriceFeed",
          "type": "address"
        }
      ],
      "name": "PriceFeedUpdated",
      "type": "event"
    },
    {
      "anonymous": false,
      "inputs": [
        {
          "indexed": true,
          "internalType": "address",
          "name": "member",
          "type": "address"
        },
        {
          "indexed": true,
          "internalType": "address",
          "name": "upline",
          "type": "address"
        }
      ],
      "name": "ReferralLoopDetected",
      "type": "event"
    },
    {
      "anonymous": false,
      "inputs": [
        {
          "indexed": true,
          "internalType": "address",
          "name": "from",
          "type": "address"
        },
        {
          "indexed": true,
          "internalType": "address",
          "name": "to",
          "type": "address"
        },
        {
          "indexed": false,
          "internalType": "uint256",
          "name": "amount",
          "type": "uint256"
        }
      ],
      "name": "ReferralPaid",
      "type": "event"
    },
    {
      "anonymous": false,
      "inputs": [
        {
          "indexed": false,
          "internalType": "uint256",
          "name": "newDuration",
          "type": "uint256"
        }
      ],
      "name": "TimelockUpdated",
      "type": "event"
    },
    {
      "anonymous": false,
      "inputs": [
        {
          "indexed": true,
          "internalType": "address",
          "name": "user",
          "type": "address"
        },
        {
          "indexed": false,
          "internalType": "string",
          "name": "reason",
          "type": "string"
        }
      ],
      "name": "TransactionFailed",
      "type": "event"
    },
    {
      "anonymous": false,
      "inputs": [
        {
          "indexed": true,
          "internalType": "address",
          "name": "from",
          "type": "address"
        },
        {
          "indexed": true,
          "internalType": "address",
          "name": "to",
          "type": "address"
        },
        {
          "indexed": true,
          "internalType": "uint256",
          "name": "tokenId",
          "type": "uint256"
        }
      ],
      "name": "Transfer",
      "type": "event"
    },
    {
      "anonymous": false,
      "inputs": [
        {
          "indexed": true,
          "internalType": "address",
          "name": "upline",
          "type": "address"
        },
        {
          "indexed": true,
          "internalType": "address",
          "name": "downline",
          "type": "address"
        },
        {
          "indexed": false,
          "internalType": "uint256",
          "name": "downlineCurrentPlan",
          "type": "uint256"
        },
        {
          "indexed": false,
          "internalType": "uint256",
          "name": "downlineTargetPlan",
          "type": "uint256"
        }
      ],
      "name": "UplineNotified",
      "type": "event"
    },
    {
      "inputs": [],
      "name": "EMERGENCY_TIMELOCK",
      "outputs": [
        {
          "internalType": "uint256",
          "name": "",
          "type": "uint256"
        }
      ],
      "stateMutability": "view",
      "type": "function"
    },
    {
      "inputs": [],
      "name": "MAX_MEMBERS_PER_CYCLE",
      "outputs": [
        {
          "internalType": "uint256",
          "name": "",
          "type": "uint256"
        }
      ],
      "stateMutability": "view",
      "type": "function"
    },
    {
      "inputs": [],
      "name": "MAX_TRANSACTION_HISTORY",
      "outputs": [
        {
          "internalType": "uint256",
          "name": "",
          "type": "uint256"
        }
      ],
      "stateMutability": "view",
      "type": "function"
    },
    {
      "inputs": [],
      "name": "TIMELOCK_DURATION",
      "outputs": [
        {
          "internalType": "uint256",
          "name": "",
          "type": "uint256"
        }
      ],
      "stateMutability": "view",
      "type": "function"
    },
    {
      "inputs": [
        {
          "internalType": "address",
          "name": "to",
          "type": "address"
        },
        {
          "internalType": "uint256",
          "name": "tokenId",
          "type": "uint256"
        }
      ],
      "name": "approve",
      "outputs": [],
      "stateMutability": "nonpayable",
      "type": "function"
    },
    {
      "inputs": [
        {
          "internalType": "address",
          "name": "owner",
          "type": "address"
        }
      ],
      "name": "balanceOf",
      "outputs": [
        {
          "internalType": "uint256",
          "name": "",
          "type": "uint256"
        }
      ],
      "stateMutability": "view",
      "type": "function"
    },
    {
      "inputs": [
        {
          "components": [
            {
              "internalType": "address",
              "name": "recipient",
              "type": "address"
            },
            {
              "internalType": "uint256",
              "name": "amount",
              "type": "uint256"
            },
            {
              "internalType": "uint256",
              "name": "balanceType",
              "type": "uint256"
            }
          ],
          "internalType": "struct CryptoMembershipNFT.WithdrawalRequest[]",
          "name": "requests",
          "type": "tuple[]"
        }
      ],
      "name": "batchWithdraw",
      "outputs": [],
      "stateMutability": "nonpayable",
      "type": "function"
    },
    {
      "inputs": [
        {
          "internalType": "uint256",
          "name": "_price",
          "type": "uint256"
        },
        {
          "internalType": "string",
          "name": "_name",
          "type": "string"
        },
        {
          "internalType": "uint256",
          "name": "_membersPerCycle",
          "type": "uint256"
        }
      ],
      "name": "createPlan",
      "outputs": [],
      "stateMutability": "nonpayable",
      "type": "function"
    },
    {
      "inputs": [],
      "name": "emergencyWithdraw",
      "outputs": [],
      "stateMutability": "nonpayable",
      "type": "function"
    },
    {
      "inputs": [],
      "name": "exitMembership",
      "outputs": [],
      "stateMutability": "nonpayable",
      "type": "function"
    },
    {
      "inputs": [
        {
          "internalType": "uint256",
          "name": "tokenId",
          "type": "uint256"
        }
      ],
      "name": "getApproved",
      "outputs": [
        {
          "internalType": "address",
          "name": "",
          "type": "address"
        }
      ],
      "stateMutability": "view",
      "type": "function"
    },
    {
      "inputs": [],
      "name": "getContractStatus",
      "outputs": [
        {
          "internalType": "bool",
          "name": "isPaused",
          "type": "bool"
        },
        {
          "internalType": "uint256",
          "name": "totalBalance",
          "type": "uint256"
        },
        {
          "internalType": "uint256",
          "name": "memberCount",
          "type": "uint256"
        },
        {
          "internalType": "uint256",
          "name": "currentPlanCount",
          "type": "uint256"
        },
        {
          "internalType": "bool",
          "name": "hasEmergencyRequest",
          "type": "bool"
        },
        {
          "internalType": "uint256",
          "name": "emergencyTimeRemaining",
          "type": "uint256"
        }
      ],
      "stateMutability": "view",
      "type": "function"
    },
    {
      "inputs": [
        {
          "internalType": "address",
          "name": "_member",
          "type": "address"
        }
      ],
      "name": "getMemberTransactions",
      "outputs": [
        {
          "components": [
            {
              "internalType": "address",
              "name": "from",
              "type": "address"
            },
            {
              "internalType": "address",
              "name": "to",
              "type": "address"
            },
            {
              "internalType": "uint256",
              "name": "amount",
              "type": "uint256"
            },
            {
              "internalType": "uint256",
              "name": "timestamp",
              "type": "uint256"
            },
            {
              "internalType": "string",
              "name": "txType",
              "type": "string"
            }
          ],
          "internalType": "struct CryptoMembershipNFT.Transaction[]",
          "name": "",
          "type": "tuple[]"
        }
      ],
      "stateMutability": "view",
      "type": "function"
    },
    {
      "inputs": [
        {
          "internalType": "uint256",
          "name": "_tokenId",
          "type": "uint256"
        }
      ],
      "name": "getNFTImage",
      "outputs": [
        {
          "internalType": "string",
          "name": "imageURI",
          "type": "string"
        },
        {
          "internalType": "string",
          "name": "name",
          "type": "string"
        },
        {
          "internalType": "string",
          "name": "description",
          "type": "string"
        },
        {
          "internalType": "uint256",
          "name": "planId",
          "type": "uint256"
        },
        {
          "internalType": "uint256",
          "name": "createdAt",
          "type": "uint256"
        }
      ],
      "stateMutability": "view",
      "type": "function"
    },
    {
      "inputs": [
        {
          "internalType": "uint256",
          "name": "_planId",
          "type": "uint256"
        }
      ],
      "name": "getPlanCycleInfo",
      "outputs": [
        {
          "internalType": "uint256",
          "name": "currentCycle",
          "type": "uint256"
        },
        {
          "internalType": "uint256",
          "name": "membersInCurrentCycle",
          "type": "uint256"
        },
        {
          "internalType": "uint256",
          "name": "membersPerCycle",
          "type": "uint256"
        }
      ],
      "stateMutability": "view",
      "type": "function"
    },
    {
      "inputs": [],
      "name": "getSystemStats",
      "outputs": [
        {
          "internalType": "uint256",
          "name": "totalMembers",
          "type": "uint256"
        },
        {
          "internalType": "uint256",
          "name": "totalRevenue",
          "type": "uint256"
        },
        {
          "internalType": "uint256",
          "name": "totalCommission",
          "type": "uint256"
        },
        {
          "internalType": "uint256",
          "name": "ownerFunds",
          "type": "uint256"
        },
        {
          "internalType": "uint256",
          "name": "feeFunds",
          "type": "uint256"
        },
        {
          "internalType": "uint256",
          "name": "fundFunds",
          "type": "uint256"
        }
      ],
      "stateMutability": "view",
      "type": "function"
    },
    {
      "inputs": [
        {
          "internalType": "address",
          "name": "owner",
          "type": "address"
        },
        {
          "internalType": "address",
          "name": "operator",
          "type": "address"
        }
      ],
      "name": "isApprovedForAll",
      "outputs": [
        {
          "internalType": "bool",
          "name": "",
          "type": "bool"
        }
      ],
      "stateMutability": "view",
      "type": "function"
    },
    {
      "inputs": [
        {
          "internalType": "address",
          "name": "",
          "type": "address"
        }
      ],
      "name": "members",
      "outputs": [
        {
          "internalType": "address",
          "name": "upline",
          "type": "address"
        },
        {
          "internalType": "uint256",
          "name": "totalReferrals",
          "type": "uint256"
        },
        {
          "internalType": "uint256",
          "name": "totalEarnings",
          "type": "uint256"
        },
        {
          "internalType": "uint256",
          "name": "planId",
          "type": "uint256"
        },
        {
          "internalType": "uint256",
          "name": "cycleNumber",
          "type": "uint256"
        },
        {
          "internalType": "uint256",
          "name": "registeredAt",
          "type": "uint256"
        }
      ],
      "stateMutability": "view",
      "type": "function"
    },
    {
      "inputs": [],
      "name": "name",
      "outputs": [
        {
          "internalType": "string",
          "name": "",
          "type": "string"
        }
      ],
      "stateMutability": "view",
      "type": "function"
    },
    {
      "inputs": [],
      "name": "owner",
      "outputs": [
        {
          "internalType": "address",
          "name": "",
          "type": "address"
        }
      ],
      "stateMutability": "view",
      "type": "function"
    },
    {
      "inputs": [
        {
          "internalType": "uint256",
          "name": "tokenId",
          "type": "uint256"
        }
      ],
      "name": "ownerOf",
      "outputs": [
        {
          "internalType": "address",
          "name": "",
          "type": "address"
        }
      ],
      "stateMutability": "view",
      "type": "function"
    },
    {
      "inputs": [
        {
          "internalType": "uint256",
          "name": "",
          "type": "uint256"
        }
      ],
      "name": "planCycles",
      "outputs": [
        {
          "internalType": "uint256",
          "name": "currentCycle",
          "type": "uint256"
        },
        {
          "internalType": "uint256",
          "name": "membersInCurrentCycle",
          "type": "uint256"
        }
      ],
      "stateMutability": "view",
      "type": "function"
    },
    {
      "inputs": [
        {
          "internalType": "uint256",
          "name": "",
          "type": "uint256"
        }
      ],
      "name": "planDefaultImages",
      "outputs": [
        {
          "internalType": "string",
          "name": "",
          "type": "string"
        }
      ],
      "stateMutability": "view",
      "type": "function"
    },
    {
      "inputs": [
        {
          "internalType": "uint256",
          "name": "",
          "type": "uint256"
        }
      ],
      "name": "plans",
      "outputs": [
        {
          "internalType": "uint256",
          "name": "price",
          "type": "uint256"
        },
        {
          "internalType": "string",
          "name": "name",
          "type": "string"
        },
        {
          "internalType": "uint256",
          "name": "membersPerCycle",
          "type": "uint256"
        },
        {
          "internalType": "bool",
          "name": "isActive",
          "type": "bool"
        }
      ],
      "stateMutability": "view",
      "type": "function"
    },
    {
      "inputs": [],
      "name": "priceFeed",
      "outputs": [
        {
          "internalType": "address",
          "name": "",
          "type": "address"
        }
      ],
      "stateMutability": "view",
      "type": "function"
    },
    {
      "inputs": [
        {
          "internalType": "uint256",
          "name": "_planId",
          "type": "uint256"
        },
        {
          "internalType": "address",
          "name": "_upline",
          "type": "address"
        }
      ],
      "name": "registerMember",
      "outputs": [],
      "stateMutability": "nonpayable",
      "type": "function"
    },
    {
      "inputs": [],
      "name": "renounceOwnership",
      "outputs": [],
      "stateMutability": "nonpayable",
      "type": "function"
    },
    {
      "inputs": [],
      "name": "requestEmergencyWithdraw",
      "outputs": [],
      "stateMutability": "nonpayable",
      "type": "function"
    },
    {
      "inputs": [],
      "name": "restartAfterPause",
      "outputs": [],
      "stateMutability": "nonpayable",
      "type": "function"
    },
    {
      "inputs": [
        {
          "internalType": "address",
          "name": "from",
          "type": "address"
        },
        {
          "internalType": "address",
          "name": "to",
          "type": "address"
        },
        {
          "internalType": "uint256",
          "name": "tokenId",
          "type": "uint256"
        }
      ],
      "name": "safeTransferFrom",
      "outputs": [],
      "stateMutability": "nonpayable",
      "type": "function"
    },
    {
      "inputs": [
        {
          "internalType": "address",
          "name": "from",
          "type": "address"
        },
        {
          "internalType": "address",
          "name": "to",
          "type": "address"
        },
        {
          "internalType": "uint256",
          "name": "tokenId",
          "type": "uint256"
        },
        {
          "internalType": "bytes",
          "name": "data",
          "type": "bytes"
        }
      ],
      "name": "safeTransferFrom",
      "outputs": [],
      "stateMutability": "nonpayable",
      "type": "function"
    },
    {
      "inputs": [
        {
          "internalType": "address",
          "name": "operator",
          "type": "address"
        },
        {
          "internalType": "bool",
          "name": "approved",
          "type": "bool"
        }
      ],
      "name": "setApprovalForAll",
      "outputs": [],
      "stateMutability": "nonpayable",
      "type": "function"
    },
    {
      "inputs": [
        {
          "internalType": "string",
          "name": "baseURI",
          "type": "string"
        }
      ],
      "name": "setBaseURI",
      "outputs": [],
      "stateMutability": "nonpayable",
      "type": "function"
    },
    {
      "inputs": [
        {
          "internalType": "bool",
          "name": "_paused",
          "type": "bool"
        }
      ],
      "name": "setPaused",
      "outputs": [],
      "stateMutability": "nonpayable",
      "type": "function"
    },
    {
      "inputs": [
        {
          "internalType": "uint256",
          "name": "_planId",
          "type": "uint256"
        },
        {
          "internalType": "string",
          "name": "_imageURI",
          "type": "string"
        }
      ],
      "name": "setPlanDefaultImage",
      "outputs": [],
      "stateMutability": "nonpayable",
      "type": "function"
    },
    {
      "inputs": [
        {
          "internalType": "uint256",
          "name": "_planId",
          "type": "uint256"
        },
        {
          "internalType": "bool",
          "name": "_isActive",
          "type": "bool"
        }
      ],
      "name": "setPlanStatus",
      "outputs": [],
      "stateMutability": "nonpayable",
      "type": "function"
    },
    {
      "inputs": [
        {
          "internalType": "address",
          "name": "_priceFeed",
          "type": "address"
        }
      ],
      "name": "setPriceFeed",
      "outputs": [],
      "stateMutability": "nonpayable",
      "type": "function"
    },
    {
      "inputs": [
        {
          "internalType": "bytes4",
          "name": "interfaceId",
          "type": "bytes4"
        }
      ],
      "name": "supportsInterface",
      "outputs": [
        {
          "internalType": "bool",
          "name": "",
          "type": "bool"
        }
      ],
      "stateMutability": "view",
      "type": "function"
    },
    {
      "inputs": [],
      "name": "symbol",
      "outputs": [
        {
          "internalType": "string",
          "name": "",
          "type": "string"
        }
      ],
      "stateMutability": "view",
      "type": "function"
    },
    {
      "inputs": [
        {
          "internalType": "bytes32",
          "name": "",
          "type": "bytes32"
        }
      ],
      "name": "timelockExpiries",
      "outputs": [
        {
          "internalType": "uint256",
          "name": "",
          "type": "uint256"
        }
      ],
      "stateMutability": "view",
      "type": "function"
    },
    {
      "inputs": [
        {
          "internalType": "uint256",
          "name": "index",
          "type": "uint256"
        }
      ],
      "name": "tokenByIndex",
      "outputs": [
        {
          "internalType": "uint256",
          "name": "",
          "type": "uint256"
        }
      ],
      "stateMutability": "view",
      "type": "function"
    },
    {
      "inputs": [
        {
          "internalType": "uint256",
          "name": "",
          "type": "uint256"
        }
      ],
      "name": "tokenImages",
      "outputs": [
        {
          "internalType": "string",
          "name": "imageURI",
          "type": "string"
        },
        {
          "internalType": "string",
          "name": "name",
          "type": "string"
        },
        {
          "internalType": "string",
          "name": "description",
          "type": "string"
        },
        {
          "internalType": "uint256",
          "name": "planId",
          "type": "uint256"
        },
        {
          "internalType": "uint256",
          "name": "createdAt",
          "type": "uint256"
        }
      ],
      "stateMutability": "view",
      "type": "function"
    },
    {
      "inputs": [
        {
          "internalType": "address",
          "name": "owner",
          "type": "address"
        },
        {
          "internalType": "uint256",
          "name": "index",
          "type": "uint256"
        }
      ],
      "name": "tokenOfOwnerByIndex",
      "outputs": [
        {
          "internalType": "uint256",
          "name": "",
          "type": "uint256"
        }
      ],
      "stateMutability": "view",
      "type": "function"
    },
    {
      "inputs": [
        {
          "internalType": "uint256",
          "name": "_tokenId",
          "type": "uint256"
        }
      ],
      "name": "tokenURI",
      "outputs": [
        {
          "internalType": "string",
          "name": "",
          "type": "string"
        }
      ],
      "stateMutability": "view",
      "type": "function"
    },
    {
      "inputs": [],
      "name": "totalSupply",
      "outputs": [
        {
          "internalType": "uint256",
          "name": "",
          "type": "uint256"
        }
      ],
      "stateMutability": "view",
      "type": "function"
    },
    {
      "inputs": [
        {
          "internalType": "address",
          "name": "",
          "type": "address"
        },
        {
          "internalType": "uint256",
          "name": "",
          "type": "uint256"
        }
      ],
      "name": "transactions",
      "outputs": [
        {
          "internalType": "address",
          "name": "from",
          "type": "address"
        },
        {
          "internalType": "address",
          "name": "to",
          "type": "address"
        },
        {
          "internalType": "uint256",
          "name": "amount",
          "type": "uint256"
        },
        {
          "internalType": "uint256",
          "name": "timestamp",
          "type": "uint256"
        },
        {
          "internalType": "string",
          "name": "txType",
          "type": "string"
        }
      ],
      "stateMutability": "view",
      "type": "function"
    },
    {
      "inputs": [
        {
          "internalType": "address",
          "name": "from",
          "type": "address"
        },
        {
          "internalType": "address",
          "name": "to",
          "type": "address"
        },
        {
          "internalType": "uint256",
          "name": "tokenId",
          "type": "uint256"
        }
      ],
      "name": "transferFrom",
      "outputs": [],
      "stateMutability": "nonpayable",
      "type": "function"
    },
    {
      "inputs": [
        {
          "internalType": "address",
          "name": "newOwner",
          "type": "address"
        }
      ],
      "name": "transferOwnership",
      "outputs": [],
      "stateMutability": "nonpayable",
      "type": "function"
    },
    {
      "inputs": [
        {
          "internalType": "uint256",
          "name": "_planId",
          "type": "uint256"
        },
        {
          "internalType": "uint256",
          "name": "_newMembersPerCycle",
          "type": "uint256"
        }
      ],
      "name": "updateMembersPerCycle",
      "outputs": [],
      "stateMutability": "nonpayable",
      "type": "function"
    },
    {
      "inputs": [
        {
          "internalType": "uint256",
          "name": "_newPlanId",
          "type": "uint256"
        }
      ],
      "name": "upgradePlan",
      "outputs": [],
      "stateMutability": "nonpayable",
      "type": "function"
    },
    {
      "inputs": [],
      "name": "usdtToken",
      "outputs": [
        {
          "internalType": "contract IERC20",
          "name": "",
          "type": "address"
        }
      ],
      "stateMutability": "view",
      "type": "function"
    },
    {
      "inputs": [],
      "name": "validateContractBalance",
      "outputs": [
        {
          "internalType": "bool",
          "name": "",
          "type": "bool"
        },
        {
          "internalType": "uint256",
          "name": "",
          "type": "uint256"
        },
        {
          "internalType": "uint256",
          "name": "",
          "type": "uint256"
        }
      ],
      "stateMutability": "view",
      "type": "function"
    },
    {
      "inputs": [
        {
          "internalType": "uint256",
          "name": "amount",
          "type": "uint256"
        }
      ],
      "name": "withdrawFeeSystemBalance",
      "outputs": [],
      "stateMutability": "nonpayable",
      "type": "function"
    },
    {
      "inputs": [
        {
          "internalType": "uint256",
          "name": "amount",
          "type": "uint256"
        }
      ],
      "name": "withdrawFundBalance",
      "outputs": [],
      "stateMutability": "nonpayable",
      "type": "function"
    },
    {
      "inputs": [
        {
          "internalType": "uint256",
          "name": "amount",
          "type": "uint256"
        }
      ],
      "name": "withdrawOwnerBalance",
      "outputs": [],
      "stateMutability": "nonpayable",
      "type": "function"
    }
  ],
  "bytecode": "0x60c06040523480156200001157600080fd5b506040516200713838038062007138833981016040819052620000349162000a9e565b806040518060400160405280601581526020017f43727970746f204d656d62657273686970204e465400000000000000000000008152506040518060400160405280600581526020016410d353919560da1b81525081600090816200009a919062000b7a565b506001620000a9828262000b7a565b5050506001600160a01b038116620000dc57604051631e4fbdf760e01b8152600060048201526024015b60405180910390fd5b620000e781620002f0565b506001600b55816001600160a01b038116620001355760405162461bcd60e51b81526020600482015260186024820152600080516020620071188339815191526044820152606401620000d3565b816001600160a01b0381166200017d5760405162461bcd60e51b81526020600482015260186024820152600080516020620071188339815191526044820152606401620000d3565b6001600160a01b038416620001c45760405162461bcd60e51b81526020600482015260186024820152600080516020620071188339815191526044820152606401620000d3565b6001600160a01b0383166200020b5760405162461bcd60e51b81526020600482015260186024820152600080516020620071188339815191526044820152606401620000d3565b6001600160a01b03841660808190526040805163313ce56760e01b8152905163313ce567916004808201926020929091908290030181865afa15801562000256573d6000803e3d6000fd5b505050506040513d601f19601f820116820180604052508101906200027c919062000c46565b60ff1660a0819052620002d25760405162461bcd60e51b815260206004820152601660248201527f496e76616c696420746f6b656e20646563696d616c73000000000000000000006044820152606401620000d3565b620002dc62000342565b620002e6620005c2565b5050505062000e44565b600a80546001600160a01b038381166001600160a01b0319831681179093556040519116919082907f8be0079c531659141344cd1fd0a4f28419497f9722a3daafe3b4186f6b6457e090600090a35050565b600060a051600a62000355919062000d87565b6040805161024081018252600761020082019081526629ba30b93a32b960c91b61022083015281528151808301835260088082526722bc383637b932b960c11b60208381019190915280840192909252835180850185526006808252652a3930b232b960d11b8285015284860191909152845180860186528281526724b73b32b9ba37b960c11b81850152606085015284518086018652600580825264456c69746560d81b82860152608086019190915285518087018752818152645768616c6560d81b8186015260a086015285518087018752818152642a34ba30b760d91b8186015260c08601528551808701875290815264135bd9dd5b60da1b8185015260e085015284518086018652818152652a3cb1b7b7b760d11b818501526101008501528451808601865281815265131959d95b9960d21b818501526101208501528451808601865281815265456d7069726560d01b81850152610140850152845180860186526009815268566973696f6e61727960b81b8185015261016085015284518086018652600a81526913585cdd195c9b5a5b9960b21b818501526101808501528451808601865291825267546974616e69756d60c01b828401526101a084019190915283518085018552600e81526d43727970746f20526f79616c747960901b818401526101c084015283518085019094528352654c656761637960d01b908301526101e081019190915290915060005b6010811015620005bd57620005b4836200058683600162000d98565b62000592919062000dae565b838360108110620005a757620005a762000dc8565b6020020151600462000991565b6001016200056a565b505050565b6040805161024081018252601561020082019081527f697066733a2f2f516d53746172746572496d616765000000000000000000000061022083015281528151808301835260168082527f697066733a2f2f516d4578706c6f726572496d61676500000000000000000000602083810191909152808401929092528351808501855260148082527f697066733a2f2f516d547261646572496d6167650000000000000000000000008285015284860191909152845180860186528281527f697066733a2f2f516d496e766573746f72496d616765000000000000000000008185015260608501528451808601865260138082527f697066733a2f2f516d456c697465496d61676500000000000000000000000000828601526080860191909152855180870187528181527f697066733a2f2f516d5768616c65496d616765000000000000000000000000008186015260a0860152855180870187528181527f697066733a2f2f516d546974616e496d616765000000000000000000000000008186015260c0860152855180870187529081527f697066733a2f2f516d4d6f67756c496d616765000000000000000000000000008185015260e0850152845180860186528181527f697066733a2f2f516d5479636f6f6e496d61676500000000000000000000000081850152610100850152845180860186528181527f697066733a2f2f516d4c6567656e64496d61676500000000000000000000000081850152610120850152845180860186528181527f697066733a2f2f516d456d70697265496d6167650000000000000000000000008185015261014085015284518086018652601781527f697066733a2f2f516d566973696f6e617279496d6167650000000000000000008185015261016085015284518086018652601881527f697066733a2f2f516d4d61737465726d696e64496d616765000000000000000081850152610180850152845180860186529182527f697066733a2f2f516d546974616e69756d496d61676500000000000000000000828401526101a084019190915283518085018552601b81527f697066733a2f2f516d43727970746f526f79616c7479496d6167650000000000818401526101c0840152835180850190945283527f697066733a2f2f516d4c6567616379496d616765000000000000000000000000908301526101e081019190915260005b60108110156200098d5781816010811062000951576200095162000dc8565b6020020151601c60006200096784600162000d98565b8152602001908152602001600020908162000983919062000b7a565b5060010162000932565b5050565b600d80546001908101918290556040805160808101825286815260208082018781528284018790526060830185905260009586526017909152919093208351815590519091820190620009e5908262000b7a565b5060408281015160028301556060909201516003909101805460ff191691151591909117905580518082018252600180825260006020808401828152600d8054845260199092529185902093518455905192909101919091555490517f9e577f4ac885b769646db304f554e3503ca6b65d2bf0dc1aab2d40f42dca44d59162000a749185908790869062000dde565b60405180910390a1505050565b80516001600160a01b038116811462000a9957600080fd5b919050565b6000806040838503121562000ab257600080fd5b62000abd8362000a81565b915062000acd6020840162000a81565b90509250929050565b634e487b7160e01b600052604160045260246000fd5b600181811c9082168062000b0157607f821691505b60208210810362000b2257634e487b7160e01b600052602260045260246000fd5b50919050565b601f821115620005bd57600081815260208120601f850160051c8101602086101562000b515750805b601f850160051c820191505b8181101562000b725782815560010162000b5d565b505050505050565b81516001600160401b0381111562000b965762000b9662000ad6565b62000bae8162000ba7845462000aec565b8462000b28565b602080601f83116001811462000be6576000841562000bcd5750858301515b600019600386901b1c1916600185901b17855562000b72565b600085815260208120601f198616915b8281101562000c175788860151825594840194600190910190840162000bf6565b508582101562000c365787850151600019600388901b60f8161c191681555b5050505050600190811b01905550565b60006020828403121562000c5957600080fd5b815160ff8116811462000c6b57600080fd5b9392505050565b634e487b7160e01b600052601160045260246000fd5b600181815b8085111562000cc957816000190482111562000cad5762000cad62000c72565b8085161562000cbb57918102915b93841c939080029062000c8d565b509250929050565b60008262000ce25750600162000d81565b8162000cf15750600062000d81565b816001811462000d0a576002811462000d155762000d35565b600191505062000d81565b60ff84111562000d295762000d2962000c72565b50506001821b62000d81565b5060208310610133831016604e8410600b841016171562000d5a575081810a62000d81565b62000d66838362000c88565b806000190482111562000d7d5762000d7d62000c72565b0290505b92915050565b600062000c6b60ff84168362000cd1565b8082018082111562000d815762000d8162000c72565b808202811582820484141762000d815762000d8162000c72565b634e487b7160e01b600052603260045260246000fd5b84815260006020608081840152855180608085015260005b8181101562000e145787810183015185820160a00152820162000df6565b50600060a0828601015260a0601f19601f8301168501019250505083604083015282606083015295945050505050565b60805160a05161626462000eb460003960005050600081816106f701528181610dd001528181611cc1015281816124d501528181612a800152818161352301528181613b7801528181613c0e01528181613ce301528181613e7201528181613f100152613fe501526162646000f3fe608060405234801561001057600080fd5b506004361061035d5760003560e01c806360d7442b116101d3578063bfe3969811610104578063d1ce59a7116100a2578063f2fde38b1161007c578063f2fde38b1461086d578063fa43ab8514610880578063fd18d5a914610893578063fd649f9e1461089b57600080fd5b8063d1ce59a71461081d578063db2e21bc14610852578063e985e9c51461085a57600080fd5b8063c0a70db7116100de578063c0a70db7146107c1578063c28f7c3b146107d4578063c87b56dd146107dc578063cdd69149146107ef57600080fd5b8063bfe3969814610762578063c032846b14610775578063c07ee582146107ae57600080fd5b80638da5cb5b11610171578063a98ad46c1161014b578063a98ad46c146106f2578063aa13578114610719578063b16206161461072c578063b88d4fde1461074f57600080fd5b80638da5cb5b146106c657806395d89b41146106d7578063a22cb465146106df57600080fd5b8063715018a6116101ad578063715018a614610690578063724e78da14610698578063741bef1a146106ab57806378937e81146106be57600080fd5b806360d7442b146106605780636352211e1461066a57806370a082311461067d57600080fd5b806319dbbed5116102ad5780633d282e4a1161024b5780634623c81e116102255780634623c81e1461060b5780634f6ccce71461061557806355f804b3146106285780635db82cf21461063b57600080fd5b80633d282e4a146105dd57806342842e0e146105e557806343027306146105f857600080fd5b806325515c021161028757806325515c021461059c5780632f745c59146105af5780633c69c657146105c25780633ce8b24e146105d557600080fd5b806319dbbed51461053a578063230e0bec1461054d57806323b872dd1461058957600080fd5b80631081ec8b1161031a57806315b04c8b116102f457806315b04c8b146104e857806316c38b3c146104fb57806318160ddd1461050e5780631876259c1461051657600080fd5b80631081ec8b146104835780631393a575146104b157806314538128146104c457600080fd5b806301ffc9a7146103625780630348f07c1461038a57806306fdde03146103aa578063081812fc146103bf57806308ae4b0c146103ea578063095ea7b31461046e575b600080fd5b61037561037036600461545c565b6108ae565b60405190151581526020015b60405180910390f35b61039d61039836600461549c565b6108d9565b6040516103819190615507565b6103b2610a18565b60405161038191906155a8565b6103d26103cd3660046155bb565b610aaa565b6040516001600160a01b039091168152602001610381565b6104376103f836600461549c565b6018602052600090815260409020805460018201546002830154600384015460048501546005909501546001600160a01b039094169492939192909186565b604080516001600160a01b0390971687526020870195909552938501929092526060840152608083015260a082015260c001610381565b61048161047c3660046155d4565b610ad3565b005b6104a36104913660046155bb565b601d6020526000908152604090205481565b604051908152602001610381565b6104816104bf3660046155fe565b610ae2565b6104d76104d23660046155d4565b610b86565b604051610381959493929190615620565b6104816104f63660046155bb565b610c6e565b610481610509366004615673565b610d36565b6008546104a3565b6105296105243660046155bb565b610e58565b604051610381959493929190615690565b610481610548366004615727565b61101e565b61057461055b3660046155bb565b6019602052600090815260409020805460019091015482565b60408051928352602083019190915201610381565b610481610597366004615773565b6110fa565b6104816105aa3660046157af565b611185565b6104a36105bd3660046155d4565b611ad3565b6104816105d03660046155bb565b611b38565b6104a3600481565b610481611be8565b6104816105f3366004615773565b611d49565b6104816106063660046155bb565b611d69565b6104a36202a30081565b6104a36106233660046155bb565b6123d1565b6104816106363660046157db565b61242a565b61064361248c565b604080519315158452602084019290925290820152606001610381565b6104a36201518081565b6103d26106783660046155bb565b612550565b6104a361068b36600461549c565b61255b565b6104816125a3565b6104816106a636600461549c565b6125b7565b6015546103d2906001600160a01b031681565b6104a3603281565b600a546001600160a01b03166103d2565b6103b261265f565b6104816106ed36600461581d565b61266e565b6103d27f000000000000000000000000000000000000000000000000000000000000000081565b6104816107273660046155bb565b612679565b61073f61073a3660046155bb565b612725565b6040516103819493929190615854565b61048161075d36600461589b565b6127da565b6105296107703660046155bb565b6127f2565b61077d612a21565b60408051961515875260208701959095529385019290925260608401521515608083015260a082015260c001610381565b6104816107bc366004615977565b612b12565b6104816107cf3660046159ec565b612ec7565b610481612ff5565b6103b26107ea3660046155bb565b613033565b6108026107fd3660046155bb565b613359565b60408051938452602084019290925290820152606001610381565b6108256133ca565b604080519687526020870195909552938501929092526060840152608083015260a082015260c001610381565b610481613425565b610375610868366004615a3f565b6136a2565b61048161087b36600461549c565b6136d0565b6103b261088e3660046155bb565b61370b565b6104816137a5565b6104816108a9366004615a69565b613a10565b60006001600160e01b0319821663780e9d6360e01b14806108d357506108d382613a69565b92915050565b6001600160a01b0381166000908152601a60209081526040808320805482518185028101850190935280835260609492939192909184015b82821015610a0d5760008481526020908190206040805160a0810182526005860290920180546001600160a01b039081168452600182015416938301939093526002830154908201526003820154606082015260048201805491929160808401919061097c90615a8e565b80601f01602080910402602001604051908101604052809291908181526020018280546109a890615a8e565b80156109f55780601f106109ca576101008083540402835291602001916109f5565b820191906000526020600020905b8154815290600101906020018083116109d857829003601f168201915b50505050508152505081526020019060010190610911565b505050509050919050565b606060008054610a2790615a8e565b80601f0160208091040260200160405190810160405280929190818152602001828054610a5390615a8e565b8015610aa05780601f10610a7557610100808354040283529160200191610aa0565b820191906000526020600020905b815481529060010190602001808311610a8357829003601f168201915b5050505050905090565b6000610ab582613ab9565b506000828152600460205260409020546001600160a01b03166108d3565b610ade828233613af2565b5050565b610aea613aff565b600082118015610afc5750600d548211155b610b215760405162461bcd60e51b8152600401610b1890615ac8565b60405180910390fd5b60048114610b715760405162461bcd60e51b815260206004820152601960248201527f496e76616c6964206d656d6265727320706572206379636c65000000000000006044820152606401610b18565b60009182526017602052604090912060020155565b601a6020528160005260406000208181548110610ba257600080fd5b6000918252602090912060059091020180546001820154600283015460038401546004850180546001600160a01b039586169850939094169550909390929091610beb90615a8e565b80601f0160208091040260200160405190810160405280929190818152602001828054610c1790615a8e565b8015610c645780601f10610c3957610100808354040283529160200191610c64565b820191906000526020600020905b815481529060010190602001808311610c4757829003601f168201915b5050505050905085565b610c76613aff565b610c7e613b2c565b601f5460ff1615610ca15760405162461bcd60e51b8152600401610b1890615af1565b601f805460ff19166001179055600f54811115610cfb5760405162461bcd60e51b8152602060048201526018602482015277496e73756666696369656e74206665652062616c616e636560401b6044820152606401610b18565b600f80548290039055610d1f610d19600a546001600160a01b031690565b82613b56565b601f805460ff19169055610d336001600b55565b50565b610d3e613aff565b601280548215156101000261ff00199091161790556040517f752d7e161ff5146f80e3820893176eb40532811e5e20400dfdde57455213706a90610d8790831515815260200190565b60405180910390a16040516370a0823160e01b81523060048201527fcafbe05b10ef0d93e74230ca42cd2d365c767ff6e59d7ea52dd314ed66b678639082906001600160a01b037f000000000000000000000000000000000000000000000000000000000000000016906370a0823190602401602060405180830381865afa158015610e17573d6000803e3d6000fd5b505050506040513d601f19601f82011682018060405250810190610e3b9190615b1d565b60408051921515835260208301919091520160405180910390a150565b601b60205260009081526040902080548190610e7390615a8e565b80601f0160208091040260200160405190810160405280929190818152602001828054610e9f90615a8e565b8015610eec5780601f10610ec157610100808354040283529160200191610eec565b820191906000526020600020905b815481529060010190602001808311610ecf57829003601f168201915b505050505090806001018054610f0190615a8e565b80601f0160208091040260200160405190810160405280929190818152602001828054610f2d90615a8e565b8015610f7a5780601f10610f4f57610100808354040283529160200191610f7a565b820191906000526020600020905b815481529060010190602001808311610f5d57829003601f168201915b505050505090806002018054610f8f90615a8e565b80601f0160208091040260200160405190810160405280929190818152602001828054610fbb90615a8e565b80156110085780601f10610fdd57610100808354040283529160200191611008565b820191906000526020600020905b815481529060010190602001808311610feb57829003601f168201915b5050505050908060030154908060040154905085565b611026613aff565b6000831180156110385750600d548311155b6110545760405162461bcd60e51b8152600401610b1890615ac8565b806110a15760405162461bcd60e51b815260206004820152601960248201527f496d616765205552492063616e6e6f7420626520656d707479000000000000006044820152606401610b18565b6000838152601c602052604090206110ba828483615b91565b50827fbea8679d8884b3edc28a0e29b54f106144e8aff9fc4dcfa95188302d24f6224083836040516110ed929190615c4b565b60405180910390a2505050565b6001600160a01b03821661112457604051633250574960e11b815260006004820152602401610b18565b6000611131838333613d7b565b9050836001600160a01b0316816001600160a01b03161461117f576040516364283d7b60e01b81526001600160a01b0380861660048301526024820184905282166044820152606401610b18565b50505050565b61118d613b2c565b601254610100900460ff16156111b55760405162461bcd60e51b8152600401610b1890615c7a565b336000908152601e60205260409020546111d190603c90615cbc565b4210156112165760405162461bcd60e51b81526020600482015260136024820152721058dd1a5bdb881d1bdbc8199c995c5d595b9d606a1b6044820152606401610b18565b336000908152601e60205260409020429055806001600160a01b03811661127f5760405162461bcd60e51b815260206004820152601860248201527f5a65726f2061646472657373206e6f7420616c6c6f77656400000000000000006044820152606401610b18565b6001600160a01b0382166000908152602080526040902054829060ff16156112e25760405162461bcd60e51b8152602060048201526016602482015275149959995c9c985b081b1bdbdc0819195d1958dd195960521b6044820152606401610b18565b6000841180156112f45750600d548411155b6113105760405162461bcd60e51b8152600401610b1890615ac8565b836001146113605760405162461bcd60e51b815260206004820181905260248201527f4e6577206d656d62657273206d75737420737461727420617420506c616e20316044820152606401610b18565b60008481526017602052604090206003015460ff166113b65760405162461bcd60e51b8152602060048201526012602482015271506c616e206973206e6f742061637469766560701b6044820152606401610b18565b6113bf3361255b565b156113ff5760405162461bcd60e51b815260206004820152601060248201526f20b63932b0b23c90309036b2b6b132b960811b6044820152606401610b18565b6000848152601c60205260408120805461141890615a8e565b9050116114735760405162461bcd60e51b815260206004820152602360248201527f44656661756c7420696d616765206e6f742073657420666f72207468697320706044820152623630b760e91b6064820152608401610b18565b60125460009060ff1615611587576001600160a01b038416158061149f57506001600160a01b03841633145b156114b65750600a546001600160a01b03166115a3565b60006114c18561255b565b116115075760405162461bcd60e51b81526020600482015260166024820152752ab83634b7329034b9903737ba10309036b2b6b132b960511b6044820152606401610b18565b6001600160a01b0384166000908152601860205260409020600301548511156115805760405162461bcd60e51b815260206004820152602560248201527f55706c696e65206d75737420626520696e2073616d65206f722068696768657260448201526410383630b760d91b6064820152608401610b18565b50826115a3565b600a546001600160a01b03166012805460ff1916600117905590505b600060176000878152602001908152602001600020604051806080016040529081600082015481526020016001820180546115dd90615a8e565b80601f016020809104026020016040519081016040528092919081815260200182805461160990615a8e565b80156116565780601f1061162b57610100808354040283529160200191611656565b820191906000526020600020905b81548152906001019060200180831161163957829003601f168201915b50505091835250506002820154602082015260039091015460ff1615156040909101528051909150611689333083613e50565b600c80546001810190915561169e3382614084565b6000888152601c6020526040812080546116b790615a8e565b80601f01602080910402602001604051908101604052809291908181526020018280546116e390615a8e565b80156117305780601f1061170557610100808354040283529160200191611730565b820191906000526020600020905b81548152906001019060200180831161171357829003601f168201915b505050505090506040518060a00160405280828152602001601760008c8152602001908152602001600020600101805461176990615a8e565b80601f016020809104026020016040519081016040528092919081815260200182805461179590615a8e565b80156117e25780601f106117b7576101008083540402835291602001916117e2565b820191906000526020600020905b8154815290600101906020018083116117c557829003601f168201915b50505050508152602001601760008c81526020019081526020016000206001016040516020016118129190615ccf565b60408051601f1981840301815291815290825260208281018d905242928201929092526000858152601b90925290208151819061184f9082615d81565b50602082015160018201906118649082615d81565b50604082015160028201906118799082615d81565b5060608201516003820155608090910151600490910155600089815260196020526040908190206001808201805490910190819055918601519091106119075780546001908101808355600091830191909155604080518c815260208101929092527f2ee63a65823306caa71f76a6f1fbc130f9932419aca12e4bc61488794c0fe842910160405180910390a15b6040518060c00160405280876001600160a01b0316815260200160008152602001600081526020018b8152602001826000015481526020014281525060186000336001600160a01b03166001600160a01b0316815260200190815260200160002060008201518160000160006101000a8154816001600160a01b0302191690836001600160a01b031602179055506020820151816001015560408201518160020155606082015181600301556080820151816004015560a082015181600501559050506119d4848761409e565b6000865b6001600160a01b038116158015906119f05750600a82105b15611a2657816119ff81615e3b565b6001600160a01b0392831660009081526018602052604090205490935090911690506119d8565b600a8210611a765760405162461bcd60e51b815260206004820152601760248201527f526566657272616c20636861696e20746f6f20646565700000000000000000006044820152606401610b18565b8254604080518e815260208101929092526001600160a01b038a169133917f251f6fa48e521a6132f04c6f189369230dfc75236405db51ebe36e7a20695de8910160405180910390a350505050505050505050610ade6001600b55565b6000611ade8361255b565b8210611b0f5760405163295f44f760e21b81526001600160a01b038416600482015260248101839052604401610b18565b506001600160a01b03919091166000908152600660209081526040808320938352929052205490565b611b40613aff565b611b48613b2c565b601f5460ff1615611b6b5760405162461bcd60e51b8152600401610b1890615af1565b601f805460ff19166001179055600e54811115611bca5760405162461bcd60e51b815260206004820152601a60248201527f496e73756666696369656e74206f776e65722062616c616e63650000000000006044820152606401610b18565b600e80548290039055610d1f610d19600a546001600160a01b031690565b611bf0613aff565b601254610100900460ff16611c405760405162461bcd60e51b815260206004820152601660248201527510dbdb9d1c9858dd081a5cc81b9bdd081c185d5cd95960521b6044820152606401610b18565b6012805461ff0019169055604051600081527f752d7e161ff5146f80e3820893176eb40532811e5e20400dfdde57455213706a9060200160405180910390a16040516370a0823160e01b81523060048201527fcafbe05b10ef0d93e74230ca42cd2d365c767ff6e59d7ea52dd314ed66b67863906000906001600160a01b037f000000000000000000000000000000000000000000000000000000000000000016906370a0823190602401602060405180830381865afa158015611d08573d6000803e3d6000fd5b505050506040513d601f19601f82011682018060405250810190611d2c9190615b1d565b6040805192151583526020830191909152015b60405180910390a1565b611d64838383604051806020016040528060008152506127da565b505050565b611d71613b2c565b601254610100900460ff1615611d995760405162461bcd60e51b8152600401610b1890615c7a565b6000611da43361255b565b11611de05760405162461bcd60e51b815260206004820152600c60248201526b2737ba10309036b2b6b132b960a11b6044820152606401610b18565b336000908152601e6020526040902054611dfc90603c90615cbc565b421015611e415760405162461bcd60e51b81526020600482015260136024820152721058dd1a5bdb881d1bdbc8199c995c5d595b9d606a1b6044820152606401610b18565b336000908152601e602090815260408083204290556021909152902054611e6c906201518090615cbc565b421015611ebb5760405162461bcd60e51b815260206004820152601760248201527f5570677261646520636f6f6c646f776e206163746976650000000000000000006044820152606401610b18565b336000908152602160205260409020429055601f5460ff1615611f205760405162461bcd60e51b815260206004820152601760248201527f5472616e73616374696f6e20696e2070726f67726573730000000000000000006044820152606401610b18565b33611f5e5760405162461bcd60e51b815260206004820152600e60248201526d24b73b30b634b21039b2b73232b960911b6044820152606401610b18565b33600090815260186020526040902060050154611fb55760405162461bcd60e51b815260206004820152601560248201527413595b58995c881b9bdd081c9959da5cdd195c9959605a1b6044820152606401610b18565b600081118015611fc75750600d548111155b611fe35760405162461bcd60e51b8152600401610b1890615ac8565b60008181526017602052604090206003015460ff166120395760405162461bcd60e51b8152602060048201526012602482015271506c616e206973206e6f742061637469766560701b6044820152606401610b18565b3360009081526018602052604090206003810154821161209b5760405162461bcd60e51b815260206004820152601f60248201527f43616e206f6e6c79207570677261646520746f2068696768657220706c616e006044820152606401610b18565b60038101546120ab906001615cbc565b821461210e5760405162461bcd60e51b815260206004820152602c60248201527f43616e6e6f7420736b697020706c616e732c206d75737420757067726164652060448201526b73657175656e7469616c6c7960a01b6064820152608401610b18565b600381015460009081526017602052604080822054848352908220546121349190615e54565b9050600081116121865760405162461bcd60e51b815260206004820152601860248201527f496e76616c696420707269636520646966666572656e636500000000000000006044820152606401610b18565b612191333083613e50565b600382015482546000858152601960209081526040808320600181810180549091019081905560179093529220600201546001600160a01b03909316921161222157805460019081018083556000918301919091556040805188815260208101929092527f2ee63a65823306caa71f76a6f1fbc130f9932419aca12e4bc61488794c0fe842910160405180910390a15b80546004860155600385018690556001600160a01b0382161580159061226157506001600160a01b03821660009081526018602052604090206003015486115b156122ad57604080518481526020810188905233916001600160a01b038516917fbfd166cf9457200d670bc504b21c561aee122260cb8c421fcf3b6d1d94c047f4910160405180910390a35b6122b7848361409e565b60006122c4336000611ad3565b6000818152601b60209081526040808320600381018c90558b84526017909252909120919250906001808301916122fc910182615e67565b50600088815260176020908152604091829020915161231f926001019101615ccf565b60405160208183030381529060405281600201908161233e9190615d81565b50825460408051878152602081018b90529081019190915233907f7b0a041091c494f9b4b51e2e436cda1e0459c080eaec80071a9f465cb1f0f9e59060600160405180910390a260408051868152602081018a905233917f0c9d02a70d485e24aed8192b990801d30084f31ccddb63aaf32ea0b2738e5d96910160405180910390a250505050505050610d336001600b55565b60006123dc60085490565b82106124055760405163295f44f760e21b81526000600482015260248101839052604401610b18565b6008828154811061241857612418615f34565b90600052602060002001549050919050565b612432613aff565b8061247f5760405162461bcd60e51b815260206004820152601860248201527f42617365205552492063616e6e6f7420626520656d70747900000000000000006044820152606401610b18565b6016611d64828483615b91565b601054600f54600e54600092839283928392916124a891615cbc565b6124b29190615cbc565b6040516370a0823160e01b81523060048201529091506000906001600160a01b037f000000000000000000000000000000000000000000000000000000000000000016906370a0823190602401602060405180830381865afa15801561251c573d6000803e3d6000fd5b505050506040513d601f19601f820116820180604052508101906125409190615b1d565b8281101596929550935090915050565b60006108d382613ab9565b60006001600160a01b038216612587576040516322718ad960e21b815260006004820152602401610b18565b506001600160a01b031660009081526003602052604090205490565b6125ab613aff565b6125b5600061424a565b565b6125bf613aff565b6001600160a01b0381166126155760405162461bcd60e51b815260206004820152601a60248201527f496e76616c6964207072696365206665656420616464726573730000000000006044820152606401610b18565b601580546001600160a01b0319166001600160a01b0383169081179091556040517fe5b20b8497e4f3e2435ef9c20e2e26b47497ee13745ce1c681ad6640653119e690600090a250565b606060018054610a2790615a8e565b610ade33838361429c565b612681613aff565b612689613b2c565b601f5460ff16156126ac5760405162461bcd60e51b8152600401610b1890615af1565b601f805460ff191660011790556010548111156127075760405162461bcd60e51b8152602060048201526019602482015278496e73756666696369656e742066756e642062616c616e636560381b6044820152606401610b18565b601080548290039055610d1f610d19600a546001600160a01b031690565b6017602052600090815260409020805460018201805491929161274790615a8e565b80601f016020809104026020016040519081016040528092919081815260200182805461277390615a8e565b80156127c05780601f10612795576101008083540402835291602001916127c0565b820191906000526020600020905b8154815290600101906020018083116127a357829003601f168201915b50505050600283015460039093015491929160ff16905084565b6127e58484846110fa565b61117f338585858561433b565b6060806060600080600061280587612550565b90506000601b60008981526020019081526020016000206040518060a001604052908160008201805461283790615a8e565b80601f016020809104026020016040519081016040528092919081815260200182805461286390615a8e565b80156128b05780601f10612885576101008083540402835291602001916128b0565b820191906000526020600020905b81548152906001019060200180831161289357829003601f168201915b505050505081526020016001820180546128c990615a8e565b80601f01602080910402602001604051908101604052809291908181526020018280546128f590615a8e565b80156129425780601f1061291757610100808354040283529160200191612942565b820191906000526020600020905b81548152906001019060200180831161292557829003601f168201915b5050505050815260200160028201805461295b90615a8e565b80601f016020809104026020016040519081016040528092919081815260200182805461298790615a8e565b80156129d45780601f106129a9576101008083540402835291602001916129d4565b820191906000526020600020905b8154815290600101906020018083116129b757829003601f168201915b505050505081526020016003820154815260200160048201548152505090508060000151816020015182604001518360600151846080015196509650965096509650505091939590929450565b600080600080600080600080600c6007015411612a3f576000612a5c565b6013544290612a52906201518090615cbc565b612a5c9190615e54565b6012546040516370a0823160e01b8152306004820152919250610100900460ff16907f00000000000000000000000000000000000000000000000000000000000000006001600160a01b0316906370a0823190602401602060405180830381865afa158015612acf573d6000803e3d6000fd5b505050506040513d601f19601f82011682018060405250810190612af39190615b1d565b600854600d54601354939b929a50909850965090151594509092509050565b612b1a613aff565b612b22613b2c565b601f5460ff1615612b455760405162461bcd60e51b8152600401610b1890615af1565b601f805460ff1916600117905580612b955760405162461bcd60e51b8152602060048201526013602482015272456d707479207265717565737420617272617960681b6044820152606401610b18565b6014811115612bda5760405162461bcd60e51b8152602060048201526011602482015270546f6f206d616e7920726571756573747360781b6044820152606401610b18565b60008080805b84811015612e6e5736868683818110612bfb57612bfb615f34565b60600291909101915060009050612c15602083018361549c565b6001600160a01b031603612c5f5760405162461bcd60e51b8152602060048201526011602482015270125b9d985b1a59081c9958da5c1a595b9d607a1b6044820152606401610b18565b6000816020013511612ca45760405162461bcd60e51b815260206004820152600e60248201526d125b9d985b1a5908185b5bdd5b9d60921b6044820152606401610b18565b600281604001351115612cf05760405162461bcd60e51b8152602060048201526014602482015273496e76616c69642062616c616e6365207479706560601b6044820152606401610b18565b8060400135600003612d6c57600e5460208201351115612d525760405162461bcd60e51b815260206004820152601a60248201527f496e73756666696369656e74206f776e65722062616c616e63650000000000006044820152606401610b18565b600e80546020830135908190039091559490940193612e4b565b8060400135600103612de357600f5460208201351115612dc95760405162461bcd60e51b8152602060048201526018602482015277496e73756666696369656e74206665652062616c616e636560401b6044820152606401610b18565b600f80546020830135908190039091559390930192612e4b565b60105460208201351115612e355760405162461bcd60e51b8152602060048201526019602482015278496e73756666696369656e742066756e642062616c616e636560381b6044820152606401610b18565b6010805460208301359081900390915592909201915b612e65612e5b602083018361549c565b8260200135613b56565b50600101612be0565b5060408051848152602081018490529081018290527f85860c6261f728c2abba8cd94008bcc6e010b1f3eb29c24ceb95c8499e8742e59060600160405180910390a15050601f805460ff1916905550610ade6001600b55565b612ecf613aff565b60048114612f1f5760405162461bcd60e51b815260206004820152601d60248201527f4d656d6265727320706572206379636c65206e6f7420616c6c6f7765640000006044820152606401610b18565b81612f635760405162461bcd60e51b81526020600482015260146024820152734e616d652063616e6e6f7420626520656d70747960601b6044820152606401610b18565b60008411612fb35760405162461bcd60e51b815260206004820152601f60248201527f5072696365206d7573742062652067726561746572207468616e207a65726f006044820152606401610b18565b61117f8484848080601f016020809104026020016040519081016040528093929190818152602001838380828437600092019190915250869250614465915050565b612ffd613aff565b4260138190556040519081527f6c51e0e9648746b65a27425fd08714243ff8799934a67ee370cde94eb5e4150390602001611d3f565b6000818152600260205260409020546060906001600160a01b031661309a5760405162461bcd60e51b815260206004820152601f60248201527f55524920717565727920666f72206e6f6e6578697374656e7420746f6b656e006044820152606401610b18565b60006130a583612550565b90506000601b60008581526020019081526020016000206040518060a00160405290816000820180546130d790615a8e565b80601f016020809104026020016040519081016040528092919081815260200182805461310390615a8e565b80156131505780601f1061312557610100808354040283529160200191613150565b820191906000526020600020905b81548152906001019060200180831161313357829003601f168201915b5050505050815260200160018201805461316990615a8e565b80601f016020809104026020016040519081016040528092919081815260200182805461319590615a8e565b80156131e25780601f106131b7576101008083540402835291602001916131e2565b820191906000526020600020905b8154815290600101906020018083116131c557829003601f168201915b505050505081526020016002820180546131fb90615a8e565b80601f016020809104026020016040519081016040528092919081815260200182805461322790615a8e565b80156132745780601f1061324957610100808354040283529160200191613274565b820191906000526020600020905b81548152906001019060200180831161325757829003601f168201915b50505091835250506003828101546020808401919091526004938401546040938401526001600160a01b03808816600090815260188352849020845160c08101865281549092168252600181015482840152600281015482860152928301546060820181905294830154608082015260059092015460a083015284015191840151845194955090936133309361330990614551565b60405160200161331c9493929190615f4a565b604051602081830303815290604052614669565b604051602001613340919061605b565b6040516020818303038152906040529350505050919050565b6000806000808411801561336f5750600d548411155b61338b5760405162461bcd60e51b8152600401610b1890615ac8565b50505060008181526019602090815260408083208151808301835281548082526001909201549084018190529484526017909252909120600201549092565b6000806000806000806133dc60085490565b601154601054600f54600e546133f29190615cbc565b6133fc9190615cbc565b6134069190615cbc565b601154600e54600f54601054949b939a50919850965094509092509050565b61342d613aff565b613435613b2c565b601f5460ff16156134585760405162461bcd60e51b8152600401610b1890615af1565b601f805460ff191660011790556013546134b45760405162461bcd60e51b815260206004820152601760248201527f4e6f207769746864726177616c207265717565737465640000000000000000006044820152606401610b18565b6013546134c5906201518090615cbc565b42101561350b5760405162461bcd60e51b8152602060048201526014602482015273151a5b595b1bd8dac81b9bdd08195e1c1a5c995960621b6044820152606401610b18565b6040516370a0823160e01b81523060048201526000907f00000000000000000000000000000000000000000000000000000000000000006001600160a01b0316906370a0823190602401602060405180830381865afa158015613572573d6000803e3d6000fd5b505050506040513d601f19601f820116820180604052508101906135969190615b1d565b9050600081116135dd5760405162461bcd60e51b81526020600482015260126024820152714e6f2066756e647320617661696c61626c6560701b6044820152606401610b18565b60408051428152602081018390527f8951c1cae461b13776767194037288554c092af373dc4f5e5b95a87c4fc7e285910160405180910390a160006013819055600e819055600f81905560105561363f610d19600a546001600160a01b031690565b600a546001600160a01b03166001600160a01b03167f5fafa99d0643513820be26656b45130b01e1c03062e1266bf36f88cbd3bd96958260405161368591815260200190565b60405180910390a250601f805460ff191690556125b56001600b55565b6001600160a01b03918216600090815260056020908152604080832093909416825291909152205460ff1690565b6136d8613aff565b6001600160a01b03811661370257604051631e4fbdf760e01b815260006004820152602401610b18565b610d338161424a565b601c602052600090815260409020805461372490615a8e565b80601f016020809104026020016040519081016040528092919081815260200182805461375090615a8e565b801561379d5780601f106137725761010080835404028352916020019161379d565b820191906000526020600020905b81548152906001019060200180831161378057829003601f168201915b505050505081565b6137ad613b2c565b601254610100900460ff16156137d55760405162461bcd60e51b8152600401610b1890615c7a565b60006137e03361255b565b1161381c5760405162461bcd60e51b815260206004820152600c60248201526b2737ba10309036b2b6b132b960a11b6044820152606401610b18565b33600090815260186020526040812060058101549091906138409062278d00615cbc565b90508042116138915760405162461bcd60e51b815260206004820152601f60248201527f4578697420756e617661696c61626c65206265666f72652033302064617973006044820152606401610b18565b60038201546000908152601760205260408120549060646138b383601e6160a0565b6138bd91906160b7565b905080600c6004015410156139205760405162461bcd60e51b8152602060048201526024808201527f496e73756666696369656e742066756e642062616c616e636520666f72207265604482015263199d5b9960e21b6064820152608401610b18565b60108054829003905560006139353382611ad3565b6000818152601b6020526040812091925061395082826153f8565b61395e6001830160006153f8565b61396c6002830160006153f8565b5060006003820181905560049091015561398581614bb5565b33600081815260186020526040812080546001600160a01b031916815560018101829055600281018290556003810182905560048101829055600501556139cc9083613b56565b60405182815233907fe0c638b9625a325005e6284e1bc01fa3455c7bec5ae11bcf9de99160980ae9109060200160405180910390a250505050506125b56001600b55565b613a18613aff565b600082118015613a2a5750600d548211155b613a465760405162461bcd60e51b8152600401610b1890615ac8565b600091825260176020526040909120600301805460ff1916911515919091179055565b60006001600160e01b031982166380ac58cd60e01b1480613a9a57506001600160e01b03198216635b5e139f60e01b145b806108d357506301ffc9a760e01b6001600160e01b03198316146108d3565b6000818152600260205260408120546001600160a01b0316806108d357604051637e27328960e01b815260048101849052602401610b18565b611d648383836001614bf0565b600a546001600160a01b031633146125b55760405163118cdaa760e01b8152336004820152602401610b18565b6002600b5403613b4f57604051633ee5aeb560e01b815260040160405180910390fd5b6002600b55565b6040516370a0823160e01b81526001600160a01b0383811660048301526000917f0000000000000000000000000000000000000000000000000000000000000000909116906370a0823190602401602060405180830381865afa158015613bc1573d6000803e3d6000fd5b505050506040513d601f19601f82011682018060405250810190613be59190615b1d565b60405163a9059cbb60e01b81526001600160a01b038581166004830152602482018590529192507f00000000000000000000000000000000000000000000000000000000000000009091169063a9059cbb906044016020604051808303816000875af1158015613c59573d6000803e3d6000fd5b505050506040513d601f19601f82011682018060405250810190613c7d91906160d9565b613cc15760405162461bcd60e51b8152602060048201526015602482015274151bdad95b881d1c985b9cd9995c8819985a5b1959605a1b6044820152606401610b18565b6040516370a0823160e01b81526001600160a01b0384811660048301526000917f0000000000000000000000000000000000000000000000000000000000000000909116906370a0823190602401602060405180830381865afa158015613d2c573d6000803e3d6000fd5b505050506040513d601f19601f82011682018060405250810190613d509190615b1d565b9050613d5c8383615cbc565b81101561117f5760405162461bcd60e51b8152600401610b18906160f6565b600080613d89858585614cf6565b90506001600160a01b038116613de657613de184600880546000838152600960205260408120829055600182018355919091527ff3f7a9fe364faab93b216da50a3214154f22a0a2b415b23a84c8169e8b636ee30155565b613e09565b846001600160a01b0316816001600160a01b031614613e0957613e098185614def565b6001600160a01b038516613e2557613e2084614e70565b613e48565b846001600160a01b0316816001600160a01b031614613e4857613e488585614f1f565b949350505050565b6040516370a0823160e01b81526001600160a01b0383811660048301526000917f0000000000000000000000000000000000000000000000000000000000000000909116906370a0823190602401602060405180830381865afa158015613ebb573d6000803e3d6000fd5b505050506040513d601f19601f82011682018060405250810190613edf9190615b1d565b6040516323b872dd60e01b81526001600160a01b0386811660048301528581166024830152604482018590529192507f0000000000000000000000000000000000000000000000000000000000000000909116906323b872dd906064016020604051808303816000875af1158015613f5b573d6000803e3d6000fd5b505050506040513d601f19601f82011682018060405250810190613f7f91906160d9565b613fc35760405162461bcd60e51b8152602060048201526015602482015274151bdad95b881d1c985b9cd9995c8819985a5b1959605a1b6044820152606401610b18565b6040516370a0823160e01b81526001600160a01b0384811660048301526000917f0000000000000000000000000000000000000000000000000000000000000000909116906370a0823190602401602060405180830381865afa15801561402e573d6000803e3d6000fd5b505050506040513d601f19601f820116820180604052508101906140529190615b1d565b905061405e8383615cbc565b81101561407d5760405162461bcd60e51b8152600401610b18906160f6565b5050505050565b610ade828260405180602001604052806000815250614f6f565b600082116140df5760405162461bcd60e51b815260206004820152600e60248201526d125b9d985b1a5908185b5bdd5b9d60921b6044820152606401610b18565b33600090815260186020526040812060030154829190819061410090614f87565b909250905060646141118284615cbc565b146141555760405162461bcd60e51b8152602060048201526014602482015273125b9d985b1a59081cda185c995cc81d1bdd185b60621b6044820152606401610b18565b606482860204808603866141698284615cbc565b146141b65760405162461bcd60e51b815260206004820152601e60248201527f446973747269627574696f6e2063616c63756c6174696f6e206572726f7200006044820152606401610b18565b600e8054606460508402819004918201909255600f805482850390810190915560108054603c8702949094048087039485019091556040805184815260208101849052908101859052929391929091907fdaf6233a382145376035341e71f8a04305f7e323d0fe3e58c908cf0a26b76df99060600160405180910390a161423d8983614fd1565b5050505050505050505050565b600a80546001600160a01b038381166001600160a01b0319831681179093556040519116919082907f8be0079c531659141344cd1fd0a4f28419497f9722a3daafe3b4186f6b6457e090600090a35050565b6001600160a01b0382166142ce57604051630b61174360e31b81526001600160a01b0383166004820152602401610b18565b6001600160a01b03838116600081815260056020908152604080832094871680845294825291829020805460ff191686151590811790915591519182527f17307eab39ab6107e8899845ad3d59bd9653f200f220920489ca2b5937696c31910160405180910390a3505050565b6001600160a01b0383163b1561407d57604051630a85bd0160e11b81526001600160a01b0384169063150b7a029061437d908890889087908790600401616139565b6020604051808303816000875af19250505080156143b8575060408051601f3d908101601f191682019092526143b591810190616176565b60015b614421573d8080156143e6576040519150601f19603f3d011682016040523d82523d6000602084013e6143eb565b606091505b50805160000361441957604051633250574960e11b81526001600160a01b0385166004820152602401610b18565b805181602001fd5b6001600160e01b03198116630a85bd0160e11b1461445d57604051633250574960e11b81526001600160a01b0385166004820152602401610b18565b505050505050565b600d805460019081019182905560408051608081018252868152602080820187815282840187905260608301859052600095865260179091529190932083518155905190918201906144b79082615d81565b5060408281015160028301556060909201516003909101805460ff191691151591909117905580518082018252600180825260006020808401828152600d8054845260199092529185902093518455905192909101919091555490517f9e577f4ac885b769646db304f554e3503ca6b65d2bf0dc1aab2d40f42dca44d59161454491859087908690616193565b60405180910390a1505050565b6060816000036145785750506040805180820190915260018152600360fc1b602082015290565b8160005b811561459757600101614590600a836160b7565b915061457c565b60008167ffffffffffffffff8111156145b2576145b2615885565b6040519080825280601f01601f1916602001820160405280156145dc576020820181803683370190505b509050815b8515614660576000190160006145f8600a886160b7565b61460390600a6160a0565b61460d9088615e54565b6146189060306161bf565b905060008160f81b90508084848151811061463557614635615f34565b60200101906001600160f81b031916908160001a905350614657600a896160b7565b975050506145e1565b50949350505050565b606060006040518060600160405280604081526020016161ef60409139835190915060008190036146ab57505060408051602081019091526000815292915050565b600060036146ba836002615cbc565b6146c491906160b7565b6146cf9060046160a0565b905060008167ffffffffffffffff8111156146ec576146ec615885565b6040519080825280601f01601f191660200182016040528015614716576020820181803683370190505b5090506000805b84614729836003615cbc565b116149285760008861473c846002615cbc565b8151811061474c5761474c615f34565b016020015160f81c60088a614762866001615cbc565b8151811061477257614772615f34565b602001015160f81c60f81b60f81c60ff16901b60108b868151811061479957614799615f34565b602001015160f81c60f81b60f81c60ff16901b1717905086601282901c603f16815181106147c9576147c9615f34565b01602001516001600160f81b03191684836147e381615e3b565b9450815181106147f5576147f5615f34565b60200101906001600160f81b031916908160001a90535086600c82901c603f168151811061482557614825615f34565b01602001516001600160f81b031916848361483f81615e3b565b94508151811061485157614851615f34565b60200101906001600160f81b031916908160001a90535086600682901c603f168151811061488157614881615f34565b01602001516001600160f81b031916848361489b81615e3b565b9450815181106148ad576148ad615f34565b60200101906001600160f81b031916908160001a9053508681603f16815181106148d9576148d9615f34565b01602001516001600160f81b03191684836148f381615e3b565b94508151811061490557614905615f34565b60200101906001600160f81b031916908160001a9053506003830192505061471d565b84821015614ba9576000601089848151811061494657614946615f34565b016020015160f81c901b90508561495e846001615cbc565b101561498e57600889614972856001615cbc565b8151811061498257614982615f34565b016020015160f81c901b175b86601282901c603f16815181106149a7576149a7615f34565b01602001516001600160f81b03191684836149c181615e3b565b9450815181106149d3576149d3615f34565b60200101906001600160f81b031916908160001a90535086600c82901c603f1681518110614a0357614a03615f34565b01602001516001600160f81b0319168483614a1d81615e3b565b945081518110614a2f57614a2f615f34565b60200101906001600160f81b031916908160001a90535085614a52846001615cbc565b1015614b115786600682901c603f1681518110614a7157614a71615f34565b01602001516001600160f81b0319168483614a8b81615e3b565b945081518110614a9d57614a9d615f34565b60200101906001600160f81b031916908160001a9053508681603f1681518110614ac957614ac9615f34565b01602001516001600160f81b0319168483614ae381615e3b565b945081518110614af557614af5615f34565b60200101906001600160f81b031916908160001a905350614ba7565b86600682901c603f1681518110614b2a57614b2a615f34565b01602001516001600160f81b0319168483614b4481615e3b565b945081518110614b5657614b56615f34565b60200101906001600160f81b031916908160001a905350603d60f81b8483614b7d81615e3b565b945081518110614b8f57614b8f615f34565b60200101906001600160f81b031916908160001a9053505b505b50909695505050505050565b6000614bc46000836000613d7b565b90506001600160a01b038116610ade57604051637e27328960e01b815260048101839052602401610b18565b8080614c0457506001600160a01b03821615155b15614cc6576000614c1484613ab9565b90506001600160a01b03831615801590614c405750826001600160a01b0316816001600160a01b031614155b8015614c535750614c5181846136a2565b155b15614c7c5760405163a9fbf51f60e01b81526001600160a01b0384166004820152602401610b18565b8115614cc45783856001600160a01b0316826001600160a01b03167f8c5be1e5ebec7d5bd14f71427d1e84f3dd0314c0f7b2291e5b200ac8c7c3b92560405160405180910390a45b505b5050600090815260046020526040902080546001600160a01b0319166001600160a01b0392909216919091179055565b6000828152600260205260408120546001600160a01b0390811690831615614d2357614d2381848661504c565b6001600160a01b03811615614d6157614d40600085600080614bf0565b6001600160a01b038116600090815260036020526040902080546000190190555b6001600160a01b03851615614d90576001600160a01b0385166000908152600360205260409020805460010190555b60008481526002602052604080822080546001600160a01b0319166001600160a01b0389811691821790925591518793918516917fddf252ad1be2c89b69c2b068fc378daa952ba7f163c4a11628f55a4df523b3ef91a4949350505050565b6000614dfa8361255b565b6000838152600760209081526040808320546001600160a01b0388168452600690925290912091925090818314614e5157600083815260208281526040808320548584528184208190558352600790915290208290555b6000938452600760209081526040808620869055938552525081205550565b600854600090614e8290600190615e54565b60008381526009602052604081205460088054939450909284908110614eaa57614eaa615f34565b906000526020600020015490508060088381548110614ecb57614ecb615f34565b6000918252602080832090910192909255828152600990915260408082208490558582528120556008805480614f0357614f036161d8565b6001900381819060005260206000200160009055905550505050565b60006001614f2c8461255b565b614f369190615e54565b6001600160a01b039093166000908152600660209081526040808320868452825280832085905593825260079052919091209190915550565b614f7983836150b0565b611d6433600085858561433b565b60008060048311614f9d57506032928392509050565b60088311614fb15750603792602d92509050565b600c8311614fc55750603a92602a92509050565b50603c92602892509050565b6001600160a01b0382161561504057336000908152601860205260408082206003908101546001600160a01b03861684529190922090910154106150405761501a338383615115565b506001600160a01b03166000908152601860205260409020600190810180549091019055565b600e8054820190555050565b615057838383615206565b611d64576001600160a01b03831661508557604051637e27328960e01b815260048101829052602401610b18565b60405163177e802f60e01b81526001600160a01b038316600482015260248101829052604401610b18565b6001600160a01b0382166150da57604051633250574960e11b815260006004820152602401610b18565b60006150e883836000613d7b565b90506001600160a01b03811615611d64576040516339e3563760e11b815260006004820152602401610b18565b601f5460ff16156151385760405162461bcd60e51b8152600401610b1890615af1565b601f805460ff191660011790556001600160a01b0382166000908152601860205260409020816151688482613b56565b6002820180548201905560118054820190556040805180820190915260088152671c9959995c9c985b60c21b60208201526151a890869086908490615269565b836001600160a01b0316856001600160a01b03167f0a721ab4682ceb61c7e4d264ef879fc419a6d764b136e7d96ef54b2053c75673836040516151ed91815260200190565b60405180910390a35050601f805460ff19169055505050565b60006001600160a01b03831615801590613e485750826001600160a01b0316846001600160a01b03161480615240575061524084846136a2565b80613e485750506000908152600460205260409020546001600160a01b03908116911614919050565b6001600160a01b0383166000908152601a6020526040902080546032111561532d576040805160a0810182526001600160a01b0380881682528681166020808401918252938301878152426060850190815260808501888152875460018181018a5560008a815298909820875160059092020180549187166001600160a01b0319928316178155945197850180549890961697169690961790935551600282015590516003820155915190919060048201906153259082615d81565b50505061407d565b6014546032906001010660148190556040805160a0810182526001600160a01b0380891682528716602082015290810185905242606082015260808101849052825490918391811061538157615381615f34565b6000918252602091829020835160059092020180546001600160a01b039283166001600160a01b0319918216178255928401516001820180549190931693169290921790556040820151600282015560608201516003820155608082015160048201906153ee9082615d81565b5050505050505050565b50805461540490615a8e565b6000825580601f10615414575050565b601f016020900490600052602060002090810190610d3391905b80821115615442576000815560010161542e565b5090565b6001600160e01b031981168114610d3357600080fd5b60006020828403121561546e57600080fd5b813561547981615446565b9392505050565b80356001600160a01b038116811461549757600080fd5b919050565b6000602082840312156154ae57600080fd5b61547982615480565b60005b838110156154d25781810151838201526020016154ba565b50506000910152565b600081518084526154f38160208601602086016154b7565b601f01601f19169290920160200192915050565b60006020808301818452808551808352604092508286019150828160051b87010184880160005b8381101561559a57888303603f19018552815180516001600160a01b03908116855288820151168885015286810151878501526060808201519085015260809081015160a091850182905290615586818601836154db565b96890196945050509086019060010161552e565b509098975050505050505050565b60208152600061547960208301846154db565b6000602082840312156155cd57600080fd5b5035919050565b600080604083850312156155e757600080fd5b6155f083615480565b946020939093013593505050565b6000806040838503121561561157600080fd5b50508035926020909101359150565b6001600160a01b03868116825285166020820152604081018490526060810183905260a06080820181905260009061565a908301846154db565b979650505050505050565b8015158114610d3357600080fd5b60006020828403121561568557600080fd5b813561547981615665565b60a0815260006156a360a08301886154db565b82810360208401526156b581886154db565b905082810360408401526156c981876154db565b60608401959095525050608001529392505050565b60008083601f8401126156f057600080fd5b50813567ffffffffffffffff81111561570857600080fd5b60208301915083602082850101111561572057600080fd5b9250929050565b60008060006040848603121561573c57600080fd5b83359250602084013567ffffffffffffffff81111561575a57600080fd5b615766868287016156de565b9497909650939450505050565b60008060006060848603121561578857600080fd5b61579184615480565b925061579f60208501615480565b9150604084013590509250925092565b600080604083850312156157c257600080fd5b823591506157d260208401615480565b90509250929050565b600080602083850312156157ee57600080fd5b823567ffffffffffffffff81111561580557600080fd5b615811858286016156de565b90969095509350505050565b6000806040838503121561583057600080fd5b61583983615480565b9150602083013561584981615665565b809150509250929050565b84815260806020820152600061586d60808301866154db565b60408301949094525090151560609091015292915050565b634e487b7160e01b600052604160045260246000fd5b600080600080608085870312156158b157600080fd5b6158ba85615480565b93506158c860208601615480565b925060408501359150606085013567ffffffffffffffff808211156158ec57600080fd5b818701915087601f83011261590057600080fd5b81358181111561591257615912615885565b604051601f8201601f19908116603f0116810190838211818310171561593a5761593a615885565b816040528281528a602084870101111561595357600080fd5b82602086016020830137600060208483010152809550505050505092959194509250565b6000806020838503121561598a57600080fd5b823567ffffffffffffffff808211156159a257600080fd5b818501915085601f8301126159b657600080fd5b8135818111156159c557600080fd5b8660206060830285010111156159da57600080fd5b60209290920196919550909350505050565b60008060008060608587031215615a0257600080fd5b84359350602085013567ffffffffffffffff811115615a2057600080fd5b615a2c878288016156de565b9598909750949560400135949350505050565b60008060408385031215615a5257600080fd5b615a5b83615480565b91506157d260208401615480565b60008060408385031215615a7c57600080fd5b82359150602083013561584981615665565b600181811c90821680615aa257607f821691505b602082108103615ac257634e487b7160e01b600052602260045260246000fd5b50919050565b6020808252600f908201526e125b9d985b1a59081c1b185b881251608a1b604082015260600190565b6020808252601290820152712932b2b73a3930b73a103a3930b739b332b960711b604082015260600190565b600060208284031215615b2f57600080fd5b5051919050565b601f821115611d6457600081815260208120601f850160051c81016020861015615b5d5750805b601f850160051c820191505b8181101561445d57828155600101615b69565b600019600383901b1c191660019190911b1790565b67ffffffffffffffff831115615ba957615ba9615885565b615bbd83615bb78354615a8e565b83615b36565b6000601f841160018114615beb5760008515615bd95750838201355b615be38682615b7c565b84555061407d565b600083815260209020601f19861690835b82811015615c1c5786850135825560209485019460019092019101615bfc565b5086821015615c395760001960f88860031b161c19848701351681555b505060018560011b0183555050505050565b60208152816020820152818360408301376000818301604090810191909152601f909201601f19160101919050565b60208082526012908201527110dbdb9d1c9858dd081a5cc81c185d5cd95960721b604082015260600190565b634e487b7160e01b600052601160045260246000fd5b808201808211156108d3576108d3615ca6565b7f43727970746f204d656d62657273686970204e4654202d20000000000000000081526000601860008454615d0381615a8e565b60018281168015615d1b5760018114615d3457615d67565b60ff198416888701528215158302880186019450615d67565b8860005260208060002060005b85811015615d5c5781548b82018a0152908401908201615d41565b505050858389010194505b50506410283630b760d91b83525050600501949350505050565b815167ffffffffffffffff811115615d9b57615d9b615885565b615daf81615da98454615a8e565b84615b36565b602080601f831160018114615dde5760008415615dcc5750858301515b615dd68582615b7c565b86555061445d565b600085815260208120601f198616915b82811015615e0d57888601518255948401946001909101908401615dee565b5085821015615e2b5787850151600019600388901b60f8161c191681555b5050505050600190811b01905550565b600060018201615e4d57615e4d615ca6565b5060010190565b818103818111156108d3576108d3615ca6565b818103615e72575050565b615e7c8254615a8e565b67ffffffffffffffff811115615e9457615e94615885565b615ea281615da98454615a8e565b6000601f821160018114615ed05760008315615ebe5750848201545b615ec88482615b7c565b85555061407d565b600085815260209020601f19841690600086815260209020845b83811015615f0a5782860154825560019586019590910190602001615eea565b5085831015615e2b5793015460001960f8600387901b161c19169092555050600190811b01905550565b634e487b7160e01b600052603260045260246000fd5b683d913730b6b2911d1160b91b81528451600090615f6f816009850160208a016154b7565b71111610113232b9b1b934b83a34b7b7111d1160711b6009918401918201528551615fa181601b840160208a016154b7565b6b1116101134b6b0b3b2911d1160a11b601b92909101918201528451615fce8160278401602089016154b7565b6009818301019150507f222c202261747472696275746573223a205b7b2274726169745f74797065223a601e8201527f2022506c616e204c6576656c222c202276616c7565223a202200000000000000603e82015283516160368160578401602088016154b7565b61604f60578383010163227d5d7d60e01b815260040190565b98975050505050505050565b7f646174613a6170706c69636174696f6e2f6a736f6e3b6261736536342c00000081526000825161609381601d8501602087016154b7565b91909101601d0192915050565b80820281158282048414176108d3576108d3615ca6565b6000826160d457634e487b7160e01b600052601260045260246000fd5b500490565b6000602082840312156160eb57600080fd5b815161547981615665565b60208082526023908201527f5472616e7366657220616d6f756e7420766572696669636174696f6e206661696040820152621b195960ea1b606082015260800190565b6001600160a01b038581168252841660208201526040810183905260806060820181905260009061616c908301846154db565b9695505050505050565b60006020828403121561618857600080fd5b815161547981615446565b8481526080602082015260006161ac60808301866154db565b6040830194909452506060015292915050565b60ff81811683821601908111156108d3576108d3615ca6565b634e487b7160e01b600052603160045260246000fdfe4142434445464748494a4b4c4d4e4f505152535455565758595a6162636465666768696a6b6c6d6e6f707172737475767778797a303132333435363738392b2fa264697066735822122024605328434db7cc8897e8d76ae9e5d5e9f46e421167532d6553589af96ab60c64736f6c634300081400335a65726f2061646472657373206e6f7420616c6c6f7765640000000000000000",
  "linkReferences": {},
  "deployedLinkReferences": {}
}