{
  "_format": "hh-sol-artifact-1",
  "contractName": "CryptoMembershipNFT",
  "sourceName": "contracts/backup.sol",
  "abi": [
    {
      "inputs": [
        {
          "internalType": "address",
          "name": "_usdtToken",
          "type": "address"
        },
        {
          "internalType": "address",
          "name": "initialOwner",
          "type": "address"
        }
      ],
      "stateMutability": "nonpayable",
      "type": "constructor"
    },
    {
      "inputs": [],
      "name": "ERC721EnumerableForbiddenBatchMint",
      "type": "error"
    },
    {
      "inputs": [
        {
          "internalType": "address",
          "name": "sender",
          "type": "address"
        },
        {
          "internalType": "uint256",
          "name": "tokenId",
          "type": "uint256"
        },
        {
          "internalType": "address",
          "name": "owner",
          "type": "address"
        }
      ],
      "name": "ERC721IncorrectOwner",
      "type": "error"
    },
    {
      "inputs": [
        {
          "internalType": "address",
          "name": "operator",
          "type": "address"
        },
        {
          "internalType": "uint256",
          "name": "tokenId",
          "type": "uint256"
        }
      ],
      "name": "ERC721InsufficientApproval",
      "type": "error"
    },
    {
      "inputs": [
        {
          "internalType": "address",
          "name": "approver",
          "type": "address"
        }
      ],
      "name": "ERC721InvalidApprover",
      "type": "error"
    },
    {
      "inputs": [
        {
          "internalType": "address",
          "name": "operator",
          "type": "address"
        }
      ],
      "name": "ERC721InvalidOperator",
      "type": "error"
    },
    {
      "inputs": [
        {
          "internalType": "address",
          "name": "owner",
          "type": "address"
        }
      ],
      "name": "ERC721InvalidOwner",
      "type": "error"
    },
    {
      "inputs": [
        {
          "internalType": "address",
          "name": "receiver",
          "type": "address"
        }
      ],
      "name": "ERC721InvalidReceiver",
      "type": "error"
    },
    {
      "inputs": [
        {
          "internalType": "address",
          "name": "sender",
          "type": "address"
        }
      ],
      "name": "ERC721InvalidSender",
      "type": "error"
    },
    {
      "inputs": [
        {
          "internalType": "uint256",
          "name": "tokenId",
          "type": "uint256"
        }
      ],
      "name": "ERC721NonexistentToken",
      "type": "error"
    },
    {
      "inputs": [
        {
          "internalType": "address",
          "name": "owner",
          "type": "address"
        },
        {
          "internalType": "uint256",
          "name": "index",
          "type": "uint256"
        }
      ],
      "name": "ERC721OutOfBoundsIndex",
      "type": "error"
    },
    {
      "inputs": [
        {
          "internalType": "address",
          "name": "owner",
          "type": "address"
        }
      ],
      "name": "OwnableInvalidOwner",
      "type": "error"
    },
    {
      "inputs": [
        {
          "internalType": "address",
          "name": "account",
          "type": "address"
        }
      ],
      "name": "OwnableUnauthorizedAccount",
      "type": "error"
    },
    {
      "inputs": [],
      "name": "ReentrancyGuardReentrantCall",
      "type": "error"
    },
    {
      "anonymous": false,
      "inputs": [
        {
          "indexed": true,
          "internalType": "address",
          "name": "owner",
          "type": "address"
        },
        {
          "indexed": true,
          "internalType": "address",
          "name": "approved",
          "type": "address"
        },
        {
          "indexed": true,
          "internalType": "uint256",
          "name": "tokenId",
          "type": "uint256"
        }
      ],
      "name": "Approval",
      "type": "event"
    },
    {
      "anonymous": false,
      "inputs": [
        {
          "indexed": true,
          "internalType": "address",
          "name": "owner",
          "type": "address"
        },
        {
          "indexed": true,
          "internalType": "address",
          "name": "operator",
          "type": "address"
        },
        {
          "indexed": false,
          "internalType": "bool",
          "name": "approved",
          "type": "bool"
        }
      ],
      "name": "ApprovalForAll",
      "type": "event"
    },
    {
      "anonymous": false,
      "inputs": [
        {
          "indexed": false,
          "internalType": "uint256",
          "name": "totalOwner",
          "type": "uint256"
        },
        {
          "indexed": false,
          "internalType": "uint256",
          "name": "totalFee",
          "type": "uint256"
        },
        {
          "indexed": false,
          "internalType": "uint256",
          "name": "totalFund",
          "type": "uint256"
        }
      ],
      "name": "BatchWithdrawalProcessed",
      "type": "event"
    },
    {
      "anonymous": false,
      "inputs": [
        {
          "indexed": false,
          "internalType": "bool",
          "name": "status",
          "type": "bool"
        }
      ],
      "name": "ContractPaused",
      "type": "event"
    },
    {
      "anonymous": false,
      "inputs": [
        {
          "indexed": false,
          "internalType": "bool",
          "name": "isPaused",
          "type": "bool"
        },
        {
          "indexed": false,
          "internalType": "uint256",
          "name": "totalBalance",
          "type": "uint256"
        }
      ],
      "name": "ContractStatusUpdated",
      "type": "event"
    },
    {
      "anonymous": false,
      "inputs": [
        {
          "indexed": true,
          "internalType": "address",
          "name": "to",
          "type": "address"
        },
        {
          "indexed": false,
          "internalType": "uint256",
          "name": "amount",
          "type": "uint256"
        }
      ],
      "name": "EmergencyWithdraw",
      "type": "event"
    },
    {
      "anonymous": false,
      "inputs": [
        {
          "indexed": false,
          "internalType": "uint256",
          "name": "timestamp",
          "type": "uint256"
        }
      ],
      "name": "EmergencyWithdrawRequested",
      "type": "event"
    },
    {
      "anonymous": false,
      "inputs": [
        {
          "indexed": false,
          "internalType": "uint256",
          "name": "ownerAmount",
          "type": "uint256"
        },
        {
          "indexed": false,
          "internalType": "uint256",
          "name": "feeAmount",
          "type": "uint256"
        },
        {
          "indexed": false,
          "internalType": "uint256",
          "name": "fundAmount",
          "type": "uint256"
        }
      ],
      "name": "FundsDistributed",
      "type": "event"
    },
    {
      "anonymous": false,
      "inputs": [
        {
          "indexed": true,
          "internalType": "address",
          "name": "member",
          "type": "address"
        },
        {
          "indexed": false,
          "internalType": "uint256",
          "name": "refundAmount",
          "type": "uint256"
        }
      ],
      "name": "MemberExited",
      "type": "event"
    },
    {
      "anonymous": false,
      "inputs": [
        {
          "indexed": true,
          "internalType": "address",
          "name": "member",
          "type": "address"
        },
        {
          "indexed": true,
          "internalType": "address",
          "name": "upline",
          "type": "address"
        },
        {
          "indexed": false,
          "internalType": "uint256",
          "name": "planId",
          "type": "uint256"
        },
        {
          "indexed": false,
          "internalType": "uint256",
          "name": "cycleNumber",
          "type": "uint256"
        }
      ],
      "name": "MemberRegistered",
      "type": "event"
    },
    {
      "anonymous": false,
      "inputs": [
        {
          "indexed": false,
          "internalType": "uint256",
          "name": "planId",
          "type": "uint256"
        },
        {
          "indexed": false,
          "internalType": "uint256",
          "name": "cycleNumber",
          "type": "uint256"
        }
      ],
      "name": "NewCycleStarted",
      "type": "event"
    },
    {
      "anonymous": false,
      "inputs": [
        {
          "indexed": true,
          "internalType": "address",
          "name": "previousOwner",
          "type": "address"
        },
        {
          "indexed": true,
          "internalType": "address",
          "name": "newOwner",
          "type": "address"
        }
      ],
      "name": "OwnershipTransferred",
      "type": "event"
    },
    {
      "anonymous": false,
      "inputs": [
        {
          "indexed": false,
          "internalType": "uint256",
          "name": "planId",
          "type": "uint256"
        },
        {
          "indexed": false,
          "internalType": "string",
          "name": "name",
          "type": "string"
        },
        {
          "indexed": false,
          "internalType": "uint256",
          "name": "price",
          "type": "uint256"
        },
        {
          "indexed": false,
          "internalType": "uint256",
          "name": "membersPerCycle",
          "type": "uint256"
        }
      ],
      "name": "PlanCreated",
      "type": "event"
    },
    {
      "anonymous": false,
      "inputs": [
        {
          "indexed": true,
          "internalType": "uint256",
          "name": "planId",
          "type": "uint256"
        },
        {
          "indexed": false,
          "internalType": "string",
          "name": "imageURI",
          "type": "string"
        }
      ],
      "name": "PlanDefaultImageSet",
      "type": "event"
    },
    {
      "anonymous": false,
      "inputs": [
        {
          "indexed": true,
          "internalType": "address",
          "name": "member",
          "type": "address"
        },
        {
          "indexed": false,
          "internalType": "uint256",
          "name": "oldPlanId",
          "type": "uint256"
        },
        {
          "indexed": false,
          "internalType": "uint256",
          "name": "newPlanId",
          "type": "uint256"
        },
        {
          "indexed": false,
          "internalType": "uint256",
          "name": "cycleNumber",
          "type": "uint256"
        }
      ],
      "name": "PlanUpgraded",
      "type": "event"
    },
    {
      "anonymous": false,
      "inputs": [
        {
          "indexed": true,
          "internalType": "address",
          "name": "newPriceFeed",
          "type": "address"
        }
      ],
      "name": "PriceFeedUpdated",
      "type": "event"
    },
    {
      "anonymous": false,
      "inputs": [
        {
          "indexed": true,
          "internalType": "address",
          "name": "from",
          "type": "address"
        },
        {
          "indexed": true,
          "internalType": "address",
          "name": "to",
          "type": "address"
        },
        {
          "indexed": false,
          "internalType": "uint256",
          "name": "amount",
          "type": "uint256"
        }
      ],
      "name": "ReferralPaid",
      "type": "event"
    },
    {
      "anonymous": false,
      "inputs": [
        {
          "indexed": true,
          "internalType": "address",
          "name": "user",
          "type": "address"
        },
        {
          "indexed": false,
          "internalType": "string",
          "name": "reason",
          "type": "string"
        }
      ],
      "name": "TransactionFailed",
      "type": "event"
    },
    {
      "anonymous": false,
      "inputs": [
        {
          "indexed": true,
          "internalType": "address",
          "name": "from",
          "type": "address"
        },
        {
          "indexed": true,
          "internalType": "address",
          "name": "to",
          "type": "address"
        },
        {
          "indexed": true,
          "internalType": "uint256",
          "name": "tokenId",
          "type": "uint256"
        }
      ],
      "name": "Transfer",
      "type": "event"
    },
    {
      "anonymous": false,
      "inputs": [
        {
          "indexed": true,
          "internalType": "address",
          "name": "upline",
          "type": "address"
        },
        {
          "indexed": true,
          "internalType": "address",
          "name": "downline",
          "type": "address"
        },
        {
          "indexed": false,
          "internalType": "uint256",
          "name": "downlineCurrentPlan",
          "type": "uint256"
        },
        {
          "indexed": false,
          "internalType": "uint256",
          "name": "downlineTargetPlan",
          "type": "uint256"
        }
      ],
      "name": "UplineNotified",
      "type": "event"
    },
    {
      "inputs": [],
      "name": "EMERGENCY_TIMELOCK",
      "outputs": [
        {
          "internalType": "uint256",
          "name": "",
          "type": "uint256"
        }
      ],
      "stateMutability": "view",
      "type": "function"
    },
    {
      "inputs": [],
      "name": "MAX_MEMBERS_PER_CYCLE",
      "outputs": [
        {
          "internalType": "uint256",
          "name": "",
          "type": "uint256"
        }
      ],
      "stateMutability": "view",
      "type": "function"
    },
    {
      "inputs": [],
      "name": "MAX_TRANSACTION_HISTORY",
      "outputs": [
        {
          "internalType": "uint256",
          "name": "",
          "type": "uint256"
        }
      ],
      "stateMutability": "view",
      "type": "function"
    },
    {
      "inputs": [],
      "name": "TIMELOCK_DURATION",
      "outputs": [
        {
          "internalType": "uint256",
          "name": "",
          "type": "uint256"
        }
      ],
      "stateMutability": "view",
      "type": "function"
    },
    {
      "inputs": [
        {
          "internalType": "address",
          "name": "to",
          "type": "address"
        },
        {
          "internalType": "uint256",
          "name": "tokenId",
          "type": "uint256"
        }
      ],
      "name": "approve",
      "outputs": [],
      "stateMutability": "nonpayable",
      "type": "function"
    },
    {
      "inputs": [
        {
          "internalType": "address",
          "name": "owner",
          "type": "address"
        }
      ],
      "name": "balanceOf",
      "outputs": [
        {
          "internalType": "uint256",
          "name": "",
          "type": "uint256"
        }
      ],
      "stateMutability": "view",
      "type": "function"
    },
    {
      "inputs": [
        {
          "components": [
            {
              "internalType": "address",
              "name": "recipient",
              "type": "address"
            },
            {
              "internalType": "uint256",
              "name": "amount",
              "type": "uint256"
            },
            {
              "internalType": "uint256",
              "name": "balanceType",
              "type": "uint256"
            }
          ],
          "internalType": "struct CryptoMembershipNFT.WithdrawalRequest[]",
          "name": "requests",
          "type": "tuple[]"
        }
      ],
      "name": "batchWithdraw",
      "outputs": [],
      "stateMutability": "nonpayable",
      "type": "function"
    },
    {
      "inputs": [
        {
          "internalType": "uint256",
          "name": "_price",
          "type": "uint256"
        },
        {
          "internalType": "string",
          "name": "_name",
          "type": "string"
        },
        {
          "internalType": "uint256",
          "name": "_membersPerCycle",
          "type": "uint256"
        }
      ],
      "name": "createPlan",
      "outputs": [],
      "stateMutability": "nonpayable",
      "type": "function"
    },
    {
      "inputs": [],
      "name": "emergencyWithdraw",
      "outputs": [],
      "stateMutability": "nonpayable",
      "type": "function"
    },
    {
      "inputs": [],
      "name": "emergencyWithdrawRequestTime",
      "outputs": [
        {
          "internalType": "uint256",
          "name": "",
          "type": "uint256"
        }
      ],
      "stateMutability": "view",
      "type": "function"
    },
    {
      "inputs": [],
      "name": "exitMembership",
      "outputs": [],
      "stateMutability": "nonpayable",
      "type": "function"
    },
    {
      "inputs": [],
      "name": "feeSystemBalance",
      "outputs": [
        {
          "internalType": "uint256",
          "name": "",
          "type": "uint256"
        }
      ],
      "stateMutability": "view",
      "type": "function"
    },
    {
      "inputs": [],
      "name": "firstMemberRegistered",
      "outputs": [
        {
          "internalType": "bool",
          "name": "",
          "type": "bool"
        }
      ],
      "stateMutability": "view",
      "type": "function"
    },
    {
      "inputs": [],
      "name": "fundBalance",
      "outputs": [
        {
          "internalType": "uint256",
          "name": "",
          "type": "uint256"
        }
      ],
      "stateMutability": "view",
      "type": "function"
    },
    {
      "inputs": [
        {
          "internalType": "uint256",
          "name": "tokenId",
          "type": "uint256"
        }
      ],
      "name": "getApproved",
      "outputs": [
        {
          "internalType": "address",
          "name": "",
          "type": "address"
        }
      ],
      "stateMutability": "view",
      "type": "function"
    },
    {
      "inputs": [],
      "name": "getContractStatus",
      "outputs": [
        {
          "internalType": "bool",
          "name": "isPaused",
          "type": "bool"
        },
        {
          "internalType": "uint256",
          "name": "totalBalance",
          "type": "uint256"
        },
        {
          "internalType": "uint256",
          "name": "memberCount",
          "type": "uint256"
        },
        {
          "internalType": "uint256",
          "name": "currentPlanCount",
          "type": "uint256"
        },
        {
          "internalType": "bool",
          "name": "hasEmergencyRequest",
          "type": "bool"
        },
        {
          "internalType": "uint256",
          "name": "emergencyTimeRemaining",
          "type": "uint256"
        }
      ],
      "stateMutability": "view",
      "type": "function"
    },
    {
      "inputs": [
        {
          "internalType": "address",
          "name": "_member",
          "type": "address"
        }
      ],
      "name": "getMemberTransactions",
      "outputs": [
        {
          "components": [
            {
              "internalType": "address",
              "name": "from",
              "type": "address"
            },
            {
              "internalType": "address",
              "name": "to",
              "type": "address"
            },
            {
              "internalType": "uint256",
              "name": "amount",
              "type": "uint256"
            },
            {
              "internalType": "uint256",
              "name": "timestamp",
              "type": "uint256"
            },
            {
              "internalType": "string",
              "name": "txType",
              "type": "string"
            }
          ],
          "internalType": "struct CryptoMembershipNFT.Transaction[]",
          "name": "",
          "type": "tuple[]"
        }
      ],
      "stateMutability": "view",
      "type": "function"
    },
    {
      "inputs": [
        {
          "internalType": "uint256",
          "name": "_tokenId",
          "type": "uint256"
        }
      ],
      "name": "getNFTImage",
      "outputs": [
        {
          "internalType": "string",
          "name": "imageURI",
          "type": "string"
        },
        {
          "internalType": "string",
          "name": "name",
          "type": "string"
        },
        {
          "internalType": "string",
          "name": "description",
          "type": "string"
        },
        {
          "internalType": "uint256",
          "name": "planId",
          "type": "uint256"
        },
        {
          "internalType": "uint256",
          "name": "createdAt",
          "type": "uint256"
        }
      ],
      "stateMutability": "view",
      "type": "function"
    },
    {
      "inputs": [
        {
          "internalType": "uint256",
          "name": "_planId",
          "type": "uint256"
        }
      ],
      "name": "getPlanCycleInfo",
      "outputs": [
        {
          "internalType": "uint256",
          "name": "currentCycle",
          "type": "uint256"
        },
        {
          "internalType": "uint256",
          "name": "membersInCurrentCycle",
          "type": "uint256"
        },
        {
          "internalType": "uint256",
          "name": "membersPerCycle",
          "type": "uint256"
        }
      ],
      "stateMutability": "view",
      "type": "function"
    },
    {
      "inputs": [],
      "name": "getSystemStats",
      "outputs": [
        {
          "internalType": "uint256",
          "name": "totalMembers",
          "type": "uint256"
        },
        {
          "internalType": "uint256",
          "name": "totalRevenue",
          "type": "uint256"
        },
        {
          "internalType": "uint256",
          "name": "totalCommission",
          "type": "uint256"
        },
        {
          "internalType": "uint256",
          "name": "ownerFunds",
          "type": "uint256"
        },
        {
          "internalType": "uint256",
          "name": "feeFunds",
          "type": "uint256"
        },
        {
          "internalType": "uint256",
          "name": "fundFunds",
          "type": "uint256"
        }
      ],
      "stateMutability": "view",
      "type": "function"
    },
    {
      "inputs": [
        {
          "internalType": "address",
          "name": "owner",
          "type": "address"
        },
        {
          "internalType": "address",
          "name": "operator",
          "type": "address"
        }
      ],
      "name": "isApprovedForAll",
      "outputs": [
        {
          "internalType": "bool",
          "name": "",
          "type": "bool"
        }
      ],
      "stateMutability": "view",
      "type": "function"
    },
    {
      "inputs": [
        {
          "internalType": "address",
          "name": "",
          "type": "address"
        }
      ],
      "name": "members",
      "outputs": [
        {
          "internalType": "address",
          "name": "upline",
          "type": "address"
        },
        {
          "internalType": "uint256",
          "name": "totalReferrals",
          "type": "uint256"
        },
        {
          "internalType": "uint256",
          "name": "totalEarnings",
          "type": "uint256"
        },
        {
          "internalType": "uint256",
          "name": "planId",
          "type": "uint256"
        },
        {
          "internalType": "uint256",
          "name": "cycleNumber",
          "type": "uint256"
        },
        {
          "internalType": "uint256",
          "name": "registeredAt",
          "type": "uint256"
        }
      ],
      "stateMutability": "view",
      "type": "function"
    },
    {
      "inputs": [],
      "name": "name",
      "outputs": [
        {
          "internalType": "string",
          "name": "",
          "type": "string"
        }
      ],
      "stateMutability": "view",
      "type": "function"
    },
    {
      "inputs": [],
      "name": "owner",
      "outputs": [
        {
          "internalType": "address",
          "name": "",
          "type": "address"
        }
      ],
      "stateMutability": "view",
      "type": "function"
    },
    {
      "inputs": [],
      "name": "ownerBalance",
      "outputs": [
        {
          "internalType": "uint256",
          "name": "",
          "type": "uint256"
        }
      ],
      "stateMutability": "view",
      "type": "function"
    },
    {
      "inputs": [
        {
          "internalType": "uint256",
          "name": "tokenId",
          "type": "uint256"
        }
      ],
      "name": "ownerOf",
      "outputs": [
        {
          "internalType": "address",
          "name": "",
          "type": "address"
        }
      ],
      "stateMutability": "view",
      "type": "function"
    },
    {
      "inputs": [],
      "name": "paused",
      "outputs": [
        {
          "internalType": "bool",
          "name": "",
          "type": "bool"
        }
      ],
      "stateMutability": "view",
      "type": "function"
    },
    {
      "inputs": [],
      "name": "planCount",
      "outputs": [
        {
          "internalType": "uint256",
          "name": "",
          "type": "uint256"
        }
      ],
      "stateMutability": "view",
      "type": "function"
    },
    {
      "inputs": [
        {
          "internalType": "uint256",
          "name": "",
          "type": "uint256"
        }
      ],
      "name": "planCycles",
      "outputs": [
        {
          "internalType": "uint256",
          "name": "currentCycle",
          "type": "uint256"
        },
        {
          "internalType": "uint256",
          "name": "membersInCurrentCycle",
          "type": "uint256"
        }
      ],
      "stateMutability": "view",
      "type": "function"
    },
    {
      "inputs": [
        {
          "internalType": "uint256",
          "name": "",
          "type": "uint256"
        }
      ],
      "name": "planDefaultImages",
      "outputs": [
        {
          "internalType": "string",
          "name": "",
          "type": "string"
        }
      ],
      "stateMutability": "view",
      "type": "function"
    },
    {
      "inputs": [
        {
          "internalType": "uint256",
          "name": "",
          "type": "uint256"
        }
      ],
      "name": "plans",
      "outputs": [
        {
          "internalType": "uint256",
          "name": "price",
          "type": "uint256"
        },
        {
          "internalType": "string",
          "name": "name",
          "type": "string"
        },
        {
          "internalType": "uint256",
          "name": "membersPerCycle",
          "type": "uint256"
        },
        {
          "internalType": "bool",
          "name": "isActive",
          "type": "bool"
        }
      ],
      "stateMutability": "view",
      "type": "function"
    },
    {
      "inputs": [],
      "name": "priceFeed",
      "outputs": [
        {
          "internalType": "address",
          "name": "",
          "type": "address"
        }
      ],
      "stateMutability": "view",
      "type": "function"
    },
    {
      "inputs": [
        {
          "internalType": "uint256",
          "name": "_planId",
          "type": "uint256"
        },
        {
          "internalType": "address",
          "name": "_upline",
          "type": "address"
        }
      ],
      "name": "registerMember",
      "outputs": [],
      "stateMutability": "nonpayable",
      "type": "function"
    },
    {
      "inputs": [],
      "name": "renounceOwnership",
      "outputs": [],
      "stateMutability": "nonpayable",
      "type": "function"
    },
    {
      "inputs": [],
      "name": "requestEmergencyWithdraw",
      "outputs": [],
      "stateMutability": "nonpayable",
      "type": "function"
    },
    {
      "inputs": [],
      "name": "restartAfterPause",
      "outputs": [],
      "stateMutability": "nonpayable",
      "type": "function"
    },
    {
      "inputs": [
        {
          "internalType": "address",
          "name": "from",
          "type": "address"
        },
        {
          "internalType": "address",
          "name": "to",
          "type": "address"
        },
        {
          "internalType": "uint256",
          "name": "tokenId",
          "type": "uint256"
        }
      ],
      "name": "safeTransferFrom",
      "outputs": [],
      "stateMutability": "nonpayable",
      "type": "function"
    },
    {
      "inputs": [
        {
          "internalType": "address",
          "name": "from",
          "type": "address"
        },
        {
          "internalType": "address",
          "name": "to",
          "type": "address"
        },
        {
          "internalType": "uint256",
          "name": "tokenId",
          "type": "uint256"
        },
        {
          "internalType": "bytes",
          "name": "data",
          "type": "bytes"
        }
      ],
      "name": "safeTransferFrom",
      "outputs": [],
      "stateMutability": "nonpayable",
      "type": "function"
    },
    {
      "inputs": [
        {
          "internalType": "address",
          "name": "operator",
          "type": "address"
        },
        {
          "internalType": "bool",
          "name": "approved",
          "type": "bool"
        }
      ],
      "name": "setApprovalForAll",
      "outputs": [],
      "stateMutability": "nonpayable",
      "type": "function"
    },
    {
      "inputs": [
        {
          "internalType": "string",
          "name": "baseURI",
          "type": "string"
        }
      ],
      "name": "setBaseURI",
      "outputs": [],
      "stateMutability": "nonpayable",
      "type": "function"
    },
    {
      "inputs": [
        {
          "internalType": "bool",
          "name": "_paused",
          "type": "bool"
        }
      ],
      "name": "setPaused",
      "outputs": [],
      "stateMutability": "nonpayable",
      "type": "function"
    },
    {
      "inputs": [
        {
          "internalType": "uint256",
          "name": "_planId",
          "type": "uint256"
        },
        {
          "internalType": "string",
          "name": "_imageURI",
          "type": "string"
        }
      ],
      "name": "setPlanDefaultImage",
      "outputs": [],
      "stateMutability": "nonpayable",
      "type": "function"
    },
    {
      "inputs": [
        {
          "internalType": "uint256",
          "name": "_planId",
          "type": "uint256"
        },
        {
          "internalType": "bool",
          "name": "_isActive",
          "type": "bool"
        }
      ],
      "name": "setPlanStatus",
      "outputs": [],
      "stateMutability": "nonpayable",
      "type": "function"
    },
    {
      "inputs": [
        {
          "internalType": "address",
          "name": "_priceFeed",
          "type": "address"
        }
      ],
      "name": "setPriceFeed",
      "outputs": [],
      "stateMutability": "nonpayable",
      "type": "function"
    },
    {
      "inputs": [
        {
          "internalType": "bytes4",
          "name": "interfaceId",
          "type": "bytes4"
        }
      ],
      "name": "supportsInterface",
      "outputs": [
        {
          "internalType": "bool",
          "name": "",
          "type": "bool"
        }
      ],
      "stateMutability": "view",
      "type": "function"
    },
    {
      "inputs": [],
      "name": "symbol",
      "outputs": [
        {
          "internalType": "string",
          "name": "",
          "type": "string"
        }
      ],
      "stateMutability": "view",
      "type": "function"
    },
    {
      "inputs": [
        {
          "internalType": "bytes32",
          "name": "",
          "type": "bytes32"
        }
      ],
      "name": "timelockExpiries",
      "outputs": [
        {
          "internalType": "uint256",
          "name": "",
          "type": "uint256"
        }
      ],
      "stateMutability": "view",
      "type": "function"
    },
    {
      "inputs": [
        {
          "internalType": "uint256",
          "name": "index",
          "type": "uint256"
        }
      ],
      "name": "tokenByIndex",
      "outputs": [
        {
          "internalType": "uint256",
          "name": "",
          "type": "uint256"
        }
      ],
      "stateMutability": "view",
      "type": "function"
    },
    {
      "inputs": [
        {
          "internalType": "uint256",
          "name": "",
          "type": "uint256"
        }
      ],
      "name": "tokenImages",
      "outputs": [
        {
          "internalType": "string",
          "name": "imageURI",
          "type": "string"
        },
        {
          "internalType": "string",
          "name": "name",
          "type": "string"
        },
        {
          "internalType": "string",
          "name": "description",
          "type": "string"
        },
        {
          "internalType": "uint256",
          "name": "planId",
          "type": "uint256"
        },
        {
          "internalType": "uint256",
          "name": "createdAt",
          "type": "uint256"
        }
      ],
      "stateMutability": "view",
      "type": "function"
    },
    {
      "inputs": [
        {
          "internalType": "address",
          "name": "owner",
          "type": "address"
        },
        {
          "internalType": "uint256",
          "name": "index",
          "type": "uint256"
        }
      ],
      "name": "tokenOfOwnerByIndex",
      "outputs": [
        {
          "internalType": "uint256",
          "name": "",
          "type": "uint256"
        }
      ],
      "stateMutability": "view",
      "type": "function"
    },
    {
      "inputs": [
        {
          "internalType": "uint256",
          "name": "_tokenId",
          "type": "uint256"
        }
      ],
      "name": "tokenURI",
      "outputs": [
        {
          "internalType": "string",
          "name": "",
          "type": "string"
        }
      ],
      "stateMutability": "view",
      "type": "function"
    },
    {
      "inputs": [],
      "name": "totalCommissionPaid",
      "outputs": [
        {
          "internalType": "uint256",
          "name": "",
          "type": "uint256"
        }
      ],
      "stateMutability": "view",
      "type": "function"
    },
    {
      "inputs": [],
      "name": "totalSupply",
      "outputs": [
        {
          "internalType": "uint256",
          "name": "",
          "type": "uint256"
        }
      ],
      "stateMutability": "view",
      "type": "function"
    },
    {
      "inputs": [
        {
          "internalType": "address",
          "name": "",
          "type": "address"
        },
        {
          "internalType": "uint256",
          "name": "",
          "type": "uint256"
        }
      ],
      "name": "transactions",
      "outputs": [
        {
          "internalType": "address",
          "name": "from",
          "type": "address"
        },
        {
          "internalType": "address",
          "name": "to",
          "type": "address"
        },
        {
          "internalType": "uint256",
          "name": "amount",
          "type": "uint256"
        },
        {
          "internalType": "uint256",
          "name": "timestamp",
          "type": "uint256"
        },
        {
          "internalType": "string",
          "name": "txType",
          "type": "string"
        }
      ],
      "stateMutability": "view",
      "type": "function"
    },
    {
      "inputs": [
        {
          "internalType": "address",
          "name": "from",
          "type": "address"
        },
        {
          "internalType": "address",
          "name": "to",
          "type": "address"
        },
        {
          "internalType": "uint256",
          "name": "tokenId",
          "type": "uint256"
        }
      ],
      "name": "transferFrom",
      "outputs": [],
      "stateMutability": "nonpayable",
      "type": "function"
    },
    {
      "inputs": [
        {
          "internalType": "address",
          "name": "newOwner",
          "type": "address"
        }
      ],
      "name": "transferOwnership",
      "outputs": [],
      "stateMutability": "nonpayable",
      "type": "function"
    },
    {
      "inputs": [
        {
          "internalType": "uint256",
          "name": "_planId",
          "type": "uint256"
        },
        {
          "internalType": "uint256",
          "name": "_newMembersPerCycle",
          "type": "uint256"
        }
      ],
      "name": "updateMembersPerCycle",
      "outputs": [],
      "stateMutability": "nonpayable",
      "type": "function"
    },
    {
      "inputs": [
        {
          "internalType": "uint256",
          "name": "_newPlanId",
          "type": "uint256"
        }
      ],
      "name": "upgradePlan",
      "outputs": [],
      "stateMutability": "nonpayable",
      "type": "function"
    },
    {
      "inputs": [],
      "name": "usdtToken",
      "outputs": [
        {
          "internalType": "contract IERC20",
          "name": "",
          "type": "address"
        }
      ],
      "stateMutability": "view",
      "type": "function"
    },
    {
      "inputs": [
        {
          "internalType": "uint256",
          "name": "amount",
          "type": "uint256"
        }
      ],
      "name": "withdrawFeeSystemBalance",
      "outputs": [],
      "stateMutability": "nonpayable",
      "type": "function"
    },
    {
      "inputs": [
        {
          "internalType": "uint256",
          "name": "amount",
          "type": "uint256"
        }
      ],
      "name": "withdrawFundBalance",
      "outputs": [],
      "stateMutability": "nonpayable",
      "type": "function"
    },
    {
      "inputs": [
        {
          "internalType": "uint256",
          "name": "amount",
          "type": "uint256"
        }
      ],
      "name": "withdrawOwnerBalance",
      "outputs": [],
      "stateMutability": "nonpayable",
      "type": "function"
    }
  ],
  "bytecode": "0x60806040526000600c556019805460ff19169055601b805460ff60a01b191690553480156200002d57600080fd5b506040516200705c3803806200705c833981016040819052620000509162000eb8565b806040518060400160405280601581526020017f43727970746f204d656d62657273686970204e465400000000000000000000008152506040518060400160405280600581526020016410d353919560da1b8152508160009081620000b6919062000f95565b506001620000c5828262000f95565b5050506001600160a01b038116620000f857604051631e4fbdf760e01b8152600060048201526024015b60405180910390fd5b6200010381620009b3565b506001600b556001600160a01b038216620001615760405162461bcd60e51b815260206004820152601860248201527f5a65726f2061646472657373206e6f7420616c6c6f77656400000000000000006044820152606401620000ef565b6001600160a01b038116620001b95760405162461bcd60e51b815260206004820152601860248201527f5a65726f2061646472657373206e6f7420616c6c6f77656400000000000000006044820152606401620000ef565b600d80546001600160a01b0319166001600160a01b0384169081179091556040805163313ce56760e01b8152905163313ce567916004808201926020929091908290030181865afa15801562000213573d6000803e3d6000fd5b505050506040513d601f19601f8201168201806040525081019062000239919062001061565b600d805460ff60a01b1916600160a01b60ff93841681029190911791829055900416620002a95760405162461bcd60e51b815260206004820152601660248201527f496e76616c696420746f6b656e20646563696d616c73000000000000000000006044820152606401620000ef565b620002b362000a05565b60408051808201909152601581527f697066733a2f2f516d53746172746572496d61676500000000000000000000006020808301919091526001600052601390527f4155c2f711f2cdd34f8262ab8fb9b7020a700fe7b6948222152f7670d1fdf34d9062000322908262000f95565b5060408051808201909152601681527f697066733a2f2f516d4578706c6f726572496d616765000000000000000000006020808301919091526002600052601390527f0b9d2c0c271bb30544eb78c59bdaebdae2728e5f65814c07768a0abe90ed19239062000392908262000f95565b5060408051808201909152601481527f697066733a2f2f516d547261646572496d6167650000000000000000000000006020808301919091526003600052601390527f0d2a6872ef858a7f8ead18dc4f3f2e8d35c853d47e2816cbb9cdd49202554e0c9062000402908262000f95565b5060408051808201909152601681527f697066733a2f2f516d496e766573746f72496d616765000000000000000000006020808301919091526004600052601390527f01413ff7a3b1d5b6c016c061d48e2c7014700c777a29fcd068fff04265813d5d9062000472908262000f95565b506040805180820190915260138082527f697066733a2f2f516d456c697465496d616765000000000000000000000000006020808401919091526005600052527ff4b2859895858d6aa26d656e4999d552f6a869b74c43bba7d2a941c4d22c355990620004e0908262000f95565b506040805180820190915260138082527f697066733a2f2f516d5768616c65496d616765000000000000000000000000006020808401919091526006600052527f709d0e3cf89777a1e1f9c99632e4494f29b0327befd0df15e277a12d94825795906200054e908262000f95565b506040805180820190915260138082527f697066733a2f2f516d546974616e496d616765000000000000000000000000006020808401919091526007600052527f8ba6fb577925b0796671c737df59b8aaae861b630513fb12823699e3e0e3ee6090620005bc908262000f95565b506040805180820190915260138082527f697066733a2f2f516d4d6f67756c496d616765000000000000000000000000006020808401919091526008600052527f7b49122965436243734b7a552847e7503db682b4cbd4d2fd428feb216e8bcdf8906200062a908262000f95565b5060408051808201909152601481527f697066733a2f2f516d5479636f6f6e496d6167650000000000000000000000006020808301919091526009600052601390527f76aa7d3cd4f559a3c98822aa7e1c37143eb9f80ceff73a5023a8fc3d6d44af61906200069a908262000f95565b5060408051808201909152601481527f697066733a2f2f516d4c6567656e64496d616765000000000000000000000000602080830191909152600a600052601390527f522e87d3d671f2915034f38e0229384befcd14fcb6842a4a7158cb5222bace8f906200070a908262000f95565b5060408051808201909152601481527f697066733a2f2f516d456d70697265496d616765000000000000000000000000602080830191909152600b600052601390527f096c4a5a35712f3bccddea911ca4c882190a673235afa6b733222c1c4155d4d8906200077a908262000f95565b5060408051808201909152601781527f697066733a2f2f516d566973696f6e617279496d616765000000000000000000602080830191909152600c600052601390527fcfe7df53cb540a76cd59225a83802812c158f2244765c115f543988963e43a9090620007ea908262000f95565b5060408051808201909152601881527f697066733a2f2f516d4d61737465726d696e64496d6167650000000000000000602080830191909152600d600052601390527f36b2512b73409a9488d8a6ff5f55d24a81b2d0acc0dc87ddb304454989acb2d5906200085a908262000f95565b5060408051808201909152601681527f697066733a2f2f516d546974616e69756d496d61676500000000000000000000602080830191909152600e600052601390527ffae1088c0c49138f1267ebc5a924540f6cbd3964866b6ad69d6610f0306bd32690620008ca908262000f95565b5060408051808201909152601b81527f697066733a2f2f516d43727970746f526f79616c7479496d6167650000000000602080830191909152600f600052601390527fea3598560a9bf02d80b97a08938925140b6320f14c1458a4e11acb962d6ca70a906200093a908262000f95565b5060408051808201909152601481527f697066733a2f2f516d4c6567616379496d6167650000000000000000000000006020808301919091526010600052601390527fc1688c1d2d0c611e93da89fe10ddd0a3f27cb50d9f94ef15a2f31a07f06220d790620009aa908262000f95565b5050506200124f565b600a80546001600160a01b038381166001600160a01b0319831681179093556040519116919082907f8be0079c531659141344cd1fd0a4f28419497f9722a3daafe3b4186f6b6457e090600090a35050565b600d5460009062000a2290600160a01b900460ff16600a620011a2565b905062000a5b62000a35826001620011b3565b60408051808201909152600781526629ba30b93a32b960c91b6020820152600462000d99565b62000a9362000a6c826002620011b3565b60408051808201909152600881526722bc383637b932b960c11b6020820152600462000d99565b62000ac962000aa4826003620011b3565b6040805180820190915260068152652a3930b232b960d11b6020820152600462000d99565b62000b0162000ada826004620011b3565b60408051808201909152600881526724b73b32b9ba37b960c11b6020820152600462000d99565b62000b3662000b12826005620011b3565b604080518082019091526005815264456c69746560d81b6020820152600462000d99565b62000b6b62000b47826006620011b3565b6040805180820190915260058152645768616c6560d81b6020820152600462000d99565b62000ba062000b7c826007620011b3565b6040805180820190915260058152642a34ba30b760d91b6020820152600462000d99565b62000bd562000bb1826008620011b3565b604080518082019091526005815264135bd9dd5b60da1b6020820152600462000d99565b62000c0b62000be6826009620011b3565b6040805180820190915260068152652a3cb1b7b7b760d11b6020820152600462000d99565b62000c4162000c1c82600a620011b3565b604080518082019091526006815265131959d95b9960d21b6020820152600462000d99565b62000c7762000c5282600b620011b3565b604080518082019091526006815265456d7069726560d01b6020820152600462000d99565b62000cb062000c8882600c620011b3565b604080518082019091526009815268566973696f6e61727960b81b6020820152600462000d99565b62000cea62000cc182600d620011b3565b60408051808201909152600a81526913585cdd195c9b5a5b9960b21b6020820152600462000d99565b62000d2262000cfb82600e620011b3565b604080518082019091526008815267546974616e69756d60c01b6020820152600462000d99565b62000d6062000d3382600f620011b3565b60408051808201909152600e81526d43727970746f20526f79616c747960901b6020820152600462000d99565b62000d9662000d71826010620011b3565b6040805180820190915260068152654c656761637960d01b6020820152600462000d99565b50565b6014805490600062000dab83620011cd565b90915550506040805160808101825284815260208082018581528284018590526001606084018190526014546000908152600e90935293909120825181559051919290919082019062000dff908262000f95565b5060408281015160028301556060909201516003909101805460ff19169115159190911790558051808201825260018082526000602080840182815260148054845260109092529185902093518455905192909101919091555490517f9e577f4ac885b769646db304f554e3503ca6b65d2bf0dc1aab2d40f42dca44d59162000e8e91859087908690620011e9565b60405180910390a1505050565b80516001600160a01b038116811462000eb357600080fd5b919050565b6000806040838503121562000ecc57600080fd5b62000ed78362000e9b565b915062000ee76020840162000e9b565b90509250929050565b634e487b7160e01b600052604160045260246000fd5b600181811c9082168062000f1b57607f821691505b60208210810362000f3c57634e487b7160e01b600052602260045260246000fd5b50919050565b601f82111562000f9057600081815260208120601f850160051c8101602086101562000f6b5750805b601f850160051c820191505b8181101562000f8c5782815560010162000f77565b5050505b505050565b81516001600160401b0381111562000fb15762000fb162000ef0565b62000fc98162000fc2845462000f06565b8462000f42565b602080601f83116001811462001001576000841562000fe85750858301515b600019600386901b1c1916600185901b17855562000f8c565b600085815260208120601f198616915b82811015620010325788860151825594840194600190910190840162001011565b5085821015620010515787850151600019600388901b60f8161c191681555b5050505050600190811b01905550565b6000602082840312156200107457600080fd5b815160ff811681146200108657600080fd5b9392505050565b634e487b7160e01b600052601160045260246000fd5b600181815b80851115620010e4578160001904821115620010c857620010c86200108d565b80851615620010d657918102915b93841c9390800290620010a8565b509250929050565b600082620010fd575060016200119c565b816200110c575060006200119c565b8160018114620011255760028114620011305762001150565b60019150506200119c565b60ff8411156200114457620011446200108d565b50506001821b6200119c565b5060208310610133831016604e8410600b841016171562001175575081810a6200119c565b620011818383620010a3565b80600019048211156200119857620011986200108d565b0290505b92915050565b60006200108660ff841683620010ec565b80820281158282048414176200119c576200119c6200108d565b600060018201620011e257620011e26200108d565b5060010190565b84815260006020608081840152855180608085015260005b818110156200121f5787810183015185820160a00152820162001201565b50600060a0828601015260a0601f19601f8301168501019250505083604083015282606083015295945050505050565b615dfd806200125f6000396000f3fe608060405234801561001057600080fd5b50600436106103ba5760003560e01c80636352211e116101f4578063b88d4fde1161011a578063cdd69149116100ad578063f2fde38b1161007c578063f2fde38b146108e8578063fa43ab85146108fb578063fd18d5a91461090e578063fd649f9e1461091657600080fd5b8063cdd691491461086a578063d1ce59a714610898578063db2e21bc146108cd578063e985e9c5146108d557600080fd5b8063c07ee582116100e9578063c07ee58214610829578063c0a70db71461083c578063c28f7c3b1461084f578063c87b56dd1461085757600080fd5b8063b88d4fde146107c1578063bedcf003146107d4578063bfe39698146107dd578063c032846b146107f057600080fd5b806377cd99a011610192578063a22cb46511610161578063a22cb46514610765578063a98ad46c14610778578063aa1357811461078b578063b16206161461079e57600080fd5b806377cd99a01461073b57806378937e81146107445780638da5cb5b1461074c57806395d89b411461075d57600080fd5b8063715018a6116101ce578063715018a614610704578063724e78da1461070c578063741bef1a1461071f5780637510adb01461073257600080fd5b80636352211e146106d5578063646e945b146106e857806370a08231146106f157600080fd5b806323b872dd116102e45780633d282e4a116102775780634f6ccce7116102465780634f6ccce71461069157806355f804b3146106a45780635c975abb146106b757806360d7442b146106cb57600080fd5b80633d282e4a1461065957806342842e0e1461066157806343027306146106745780634623c81e1461068757600080fd5b8063382d39bb116102b3578063382d39bb1461062c5780633c067945146106355780633c69c6571461063e5780633ce8b24e1461065157600080fd5b806323b872dd146105e657806325515c02146105f95780632a9085361461060c5780632f745c591461061957600080fd5b80631393a5751161035c57806318160ddd1161032b57806318160ddd1461056b5780631876259c1461057357806319dbbed514610597578063230e0bec146105aa57600080fd5b80631393a5751461050e578063145381281461052157806315b04c8b1461054557806316c38b3c1461055857600080fd5b8063081812fc11610398578063081812fc1461041c57806308ae4b0c14610447578063095ea7b3146104cb5780631081ec8b146104e057600080fd5b806301ffc9a7146103bf5780630348f07c146103e757806306fdde0314610407575b600080fd5b6103d26103cd366004615211565b610929565b60405190151581526020015b60405180910390f35b6103fa6103f5366004615251565b610954565b6040516103de91906152bc565b61040f610a93565b6040516103de919061535d565b61042f61042a366004615370565b610b25565b6040516001600160a01b0390911681526020016103de565b610494610455366004615251565b600f602052600090815260409020805460018201546002830154600384015460048501546005909501546001600160a01b039094169492939192909186565b604080516001600160a01b0390971687526020870195909552938501929092526060840152608083015260a082015260c0016103de565b6104de6104d9366004615389565b610b4e565b005b6105006104ee366004615370565b601c6020526000908152604090205481565b6040519081526020016103de565b6104de61051c3660046153b3565b610b5d565b61053461052f366004615389565b610c01565b6040516103de9594939291906153d5565b6104de610553366004615370565b610ce9565b6104de610566366004615428565b610e1a565b600854610500565b610586610581366004615370565b610e7a565b6040516103de959493929190615445565b6104de6105a536600461553f565b611040565b6105d16105b8366004615370565b6010602052600090815260409020805460019091015482565b604080519283526020830191909152016103de565b6104de6105f4366004615586565b61111c565b6104de6106073660046155c2565b6111a7565b6019546103d29060ff1681565b610500610627366004615389565b611afc565b61050060145481565b61050060175481565b6104de61064c366004615370565b611b61565b610500600481565b6104de611bd5565b6104de61066f366004615586565b611c73565b6104de610682366004615370565b611c93565b6105006202a30081565b61050061069f366004615370565b612346565b6104de6106b23660046155ee565b61239f565b601b546103d290600160a01b900460ff1681565b6105006201518081565b61042f6106e3366004615370565b612404565b610500601e5481565b6105006106ff366004615251565b61240f565b6104de612457565b6104de61071a366004615251565b61246b565b601b5461042f906001600160a01b031681565b61050060185481565b61050060165481565b610500603281565b600a546001600160a01b031661042f565b61040f612513565b6104de610773366004615623565b612522565b600d5461042f906001600160a01b031681565b6104de610799366004615370565b61252d565b6107b16107ac366004615370565b61259d565b6040516103de949392919061565a565b6104de6107cf36600461568b565b612652565b61050060155481565b6105866107eb366004615370565b61266a565b6107f8612899565b60408051961515875260208701959095529385019290925260608401521515608083015260a082015260c0016103de565b6104de610837366004615707565b61296d565b6104de61084a36600461577c565b612e96565b6104de612f91565b61040f610865366004615370565b612fcf565b61087d610878366004615370565b613290565b604080519384526020840192909252908201526060016103de565b6108a0613301565b604080519687526020870195909552938501929092526060840152608083015260a082015260c0016103de565b6104de61335c565b6103d26108e33660046157cc565b6135e6565b6104de6108f6366004615251565b613614565b61040f610909366004615370565b61364f565b6104de6136e9565b6104de6109243660046157f6565b6139e9565b60006001600160e01b0319821663780e9d6360e01b148061094e575061094e82613a42565b92915050565b6001600160a01b0381166000908152601160209081526040808320805482518185028101850190935280835260609492939192909184015b82821015610a885760008481526020908190206040805160a0810182526005860290920180546001600160a01b03908116845260018201541693830193909352600283015490820152600382015460608201526004820180549192916080840191906109f79061581b565b80601f0160208091040260200160405190810160405280929190818152602001828054610a239061581b565b8015610a705780601f10610a4557610100808354040283529160200191610a70565b820191906000526020600020905b815481529060010190602001808311610a5357829003601f168201915b5050505050815250508152602001906001019061098c565b505050509050919050565b606060008054610aa29061581b565b80601f0160208091040260200160405190810160405280929190818152602001828054610ace9061581b565b8015610b1b5780601f10610af057610100808354040283529160200191610b1b565b820191906000526020600020905b815481529060010190602001808311610afe57829003601f168201915b5050505050905090565b6000610b3082613a92565b506000828152600460205260409020546001600160a01b031661094e565b610b59828233613acb565b5050565b610b65613ad8565b600082118015610b7757506014548211155b610b9c5760405162461bcd60e51b8152600401610b9390615855565b60405180910390fd5b60048114610bec5760405162461bcd60e51b815260206004820152601960248201527f496e76616c6964206d656d6265727320706572206379636c65000000000000006044820152606401610b93565b6000918252600e602052604090912060020155565b60116020528160005260406000208181548110610c1d57600080fd5b6000918252602090912060059091020180546001820154600283015460038401546004850180546001600160a01b039586169850939094169550909390929091610c669061581b565b80601f0160208091040260200160405190810160405280929190818152602001828054610c929061581b565b8015610cdf5780601f10610cb457610100808354040283529160200191610cdf565b820191906000526020600020905b815481529060010190602001808311610cc257829003601f168201915b5050505050905085565b610cf1613ad8565b610cf9613b05565b601654811115610d465760405162461bcd60e51b8152602060048201526018602482015277496e73756666696369656e74206665652062616c616e636560401b6044820152606401610b93565b8060166000828254610d589190615894565b9091555050600d546001600160a01b031663a9059cbb610d80600a546001600160a01b031690565b6040516001600160e01b031960e084901b1681526001600160a01b039091166004820152602481018490526044016020604051808303816000875af1158015610dcd573d6000803e3d6000fd5b505050506040513d601f19601f82011682018060405250810190610df191906158a7565b610e0d5760405162461bcd60e51b8152600401610b93906158c4565b610e176001600b55565b50565b610e22613ad8565b601b8054821515600160a01b0260ff60a01b199091161790556040517f752d7e161ff5146f80e3820893176eb40532811e5e20400dfdde57455213706a90610e6f90831515815260200190565b60405180910390a150565b601260205260009081526040902080548190610e959061581b565b80601f0160208091040260200160405190810160405280929190818152602001828054610ec19061581b565b8015610f0e5780601f10610ee357610100808354040283529160200191610f0e565b820191906000526020600020905b815481529060010190602001808311610ef157829003601f168201915b505050505090806001018054610f239061581b565b80601f0160208091040260200160405190810160405280929190818152602001828054610f4f9061581b565b8015610f9c5780601f10610f7157610100808354040283529160200191610f9c565b820191906000526020600020905b815481529060010190602001808311610f7f57829003601f168201915b505050505090806002018054610fb19061581b565b80601f0160208091040260200160405190810160405280929190818152602001828054610fdd9061581b565b801561102a5780601f10610fff5761010080835404028352916020019161102a565b820191906000526020600020905b81548152906001019060200180831161100d57829003601f168201915b5050505050908060030154908060040154905085565b611048613ad8565b60008211801561105a57506014548211155b6110765760405162461bcd60e51b8152600401610b9390615855565b60008151116110c75760405162461bcd60e51b815260206004820152601960248201527f496d616765205552492063616e6e6f7420626520656d707479000000000000006044820152606401610b93565b60008281526013602052604090206110df8282615938565b50817fbea8679d8884b3edc28a0e29b54f106144e8aff9fc4dcfa95188302d24f6224082604051611110919061535d565b60405180910390a25050565b6001600160a01b03821661114657604051633250574960e11b815260006004820152602401610b93565b6000611153838333613b2f565b9050836001600160a01b0316816001600160a01b0316146111a1576040516364283d7b60e01b81526001600160a01b0380861660048301526024820184905282166044820152606401610b93565b50505050565b6111af613b05565b601b54600160a01b900460ff16156111d95760405162461bcd60e51b8152600401610b93906159f8565b6000821180156111eb57506014548211155b6112075760405162461bcd60e51b8152600401610b9390615855565b816001146112575760405162461bcd60e51b815260206004820181905260248201527f4e6577206d656d62657273206d75737420737461727420617420506c616e20316044820152606401610b93565b6000828152600e602052604090206003015460ff166112ad5760405162461bcd60e51b8152602060048201526012602482015271506c616e206973206e6f742061637469766560701b6044820152606401610b93565b6112b63361240f565b156112f65760405162461bcd60e51b815260206004820152601060248201526f20b63932b0b23c90309036b2b6b132b960811b6044820152606401610b93565b6000828152601360205260408120805461130f9061581b565b90501161136a5760405162461bcd60e51b815260206004820152602360248201527f44656661756c7420696d616765206e6f742073657420666f72207468697320706044820152623630b760e91b6064820152608401610b93565b60195460ff1615611479576001600160a01b038116158061139357506001600160a01b03811633145b156113aa5750600a546001600160a01b0316611495565b60006113b58261240f565b116113fb5760405162461bcd60e51b81526020600482015260166024820152752ab83634b7329034b9903737ba10309036b2b6b132b960511b6044820152606401610b93565b6001600160a01b0381166000908152600f60205260409020600301548211156114745760405162461bcd60e51b815260206004820152602560248201527f55706c696e65206d75737420626520696e2073616d65206f722068696768657260448201526410383630b760d91b6064820152608401610b93565b611495565b600a546001600160a01b03166019805460ff1916600117905590505b6000600e6000848152602001908152602001600020604051806080016040529081600082015481526020016001820180546114cf9061581b565b80601f01602080910402602001604051908101604052809291908181526020018280546114fb9061581b565b80156115485780601f1061151d57610100808354040283529160200191611548565b820191906000526020600020905b81548152906001019060200180831161152b57829003601f168201915b50505091835250506002820154602082015260039091015460ff1615156040918201528151600d5491516370a0823160e01b8152306004820152929350916000916001600160a01b0316906370a0823190602401602060405180830381865afa1580156115b9573d6000803e3d6000fd5b505050506040513d601f19601f820116820180604052508101906115dd9190615a24565b600d546040516323b872dd60e01b8152336004820152306024820152604481018590529192506001600160a01b0316906323b872dd906064016020604051808303816000875af1158015611635573d6000803e3d6000fd5b505050506040513d601f19601f8201168201806040525081019061165991906158a7565b6116755760405162461bcd60e51b8152600401610b93906158c4565b600d546040516370a0823160e01b81523060048201526000916001600160a01b0316906370a0823190602401602060405180830381865afa1580156116be573d6000803e3d6000fd5b505050506040513d601f19601f820116820180604052508101906116e29190615a24565b90506116ee8383615a3d565b8110156117385760405162461bcd60e51b81526020600482015260186024820152770a8e4c2dce6cccae440c2dadeeadce840dad2e6dac2e8c6d60431b6044820152606401610b93565b600c8054908190600061174a83615a50565b91905055506117593382613c04565b600087815260136020526040812080546117729061581b565b80601f016020809104026020016040519081016040528092919081815260200182805461179e9061581b565b80156117eb5780601f106117c0576101008083540402835291602001916117eb565b820191906000526020600020905b8154815290600101906020018083116117ce57829003601f168201915b505050505090506040518060a00160405280828152602001600e60008b815260200190815260200160002060010180546118249061581b565b80601f01602080910402602001604051908101604052809291908181526020018280546118509061581b565b801561189d5780601f106118725761010080835404028352916020019161189d565b820191906000526020600020905b81548152906001019060200180831161188057829003601f168201915b50505050508152602001600e60008b81526020019081526020016000206001016040516020016118cd9190615a69565b60408051601f1981840301815291815290825260208281018c905242928201929092526000858152601290925290208151819061190a9082615938565b506020820151600182019061191f9082615938565b50604082015160028201906119349082615938565b50606082015160038201556080909101516004909101556000888152601060205260408120600181018054919261196a83615a50565b919050555086604001518160010154106119d557805481600061198c83615a50565b9091555050600060018201558054604080518b815260208101929092527f2ee63a65823306caa71f76a6f1fbc130f9932419aca12e4bc61488794c0fe842910160405180910390a15b6040518060c00160405280896001600160a01b0316815260200160008152602001600081526020018a81526020018260000154815260200142815250600f6000336001600160a01b03166001600160a01b0316815260200190815260200160002060008201518160000160006101000a8154816001600160a01b0302191690836001600160a01b031602179055506020820151816001015560408201518160020155606082015181600301556080820151816004015560a08201518160050155905050611aa28689613c1e565b8054604080518b815260208101929092526001600160a01b038a169133917f251f6fa48e521a6132f04c6f189369230dfc75236405db51ebe36e7a20695de8910160405180910390a350505050505050610b596001600b55565b6000611b078361240f565b8210611b385760405163295f44f760e21b81526001600160a01b038416600482015260248101839052604401610b93565b506001600160a01b03919091166000908152600660209081526040808320938352929052205490565b611b69613ad8565b611b71613b05565b601554811115611bc35760405162461bcd60e51b815260206004820152601a60248201527f496e73756666696369656e74206f776e65722062616c616e63650000000000006044820152606401610b93565b8060156000828254610d589190615894565b611bdd613ad8565b601b54600160a01b900460ff16611c2f5760405162461bcd60e51b815260206004820152601660248201527510dbdb9d1c9858dd081a5cc81b9bdd081c185d5cd95960521b6044820152606401610b93565b601b805460ff60a01b19169055604051600081527f752d7e161ff5146f80e3820893176eb40532811e5e20400dfdde57455213706a906020015b60405180910390a1565b611c8e83838360405180602001604052806000815250612652565b505050565b611c9b613b05565b601b54600160a01b900460ff1615611cc55760405162461bcd60e51b8152600401610b93906159f8565b6000611cd03361240f565b11611d0c5760405162461bcd60e51b815260206004820152600c60248201526b2737ba10309036b2b6b132b960a11b6044820152606401610b93565b601d5460ff1615611d5f5760405162461bcd60e51b815260206004820152601760248201527f5472616e73616374696f6e20696e2070726f67726573730000000000000000006044820152606401610b93565b33611d9d5760405162461bcd60e51b815260206004820152600e60248201526d24b73b30b634b21039b2b73232b960911b6044820152606401610b93565b336000908152600f6020526040902060050154611df45760405162461bcd60e51b815260206004820152601560248201527413595b58995c881b9bdd081c9959da5cdd195c9959605a1b6044820152606401610b93565b600081118015611e0657506014548111155b611e225760405162461bcd60e51b8152600401610b9390615855565b6000818152600e602052604090206003015460ff16611e785760405162461bcd60e51b8152602060048201526012602482015271506c616e206973206e6f742061637469766560701b6044820152606401610b93565b336000908152600f6020526040902060038101548211611eda5760405162461bcd60e51b815260206004820152601f60248201527f43616e206f6e6c79207570677261646520746f2068696768657220706c616e006044820152606401610b93565b6003810154611eea906001615a3d565b8214611f4d5760405162461bcd60e51b815260206004820152602c60248201527f43616e6e6f7420736b697020706c616e732c206d75737420757067726164652060448201526b73657175656e7469616c6c7960a01b6064820152608401610b93565b60038101546000908152600e60205260408082205484835290822054611f739190615894565b905060008111611fc55760405162461bcd60e51b815260206004820152601860248201527f496e76616c696420707269636520646966666572656e636500000000000000006044820152606401610b93565b600d546040516370a0823160e01b81523060048201526000916001600160a01b0316906370a0823190602401602060405180830381865afa15801561200e573d6000803e3d6000fd5b505050506040513d601f19601f820116820180604052508101906120329190615a24565b600d546040516323b872dd60e01b8152336004820152306024820152604481018590529192506001600160a01b0316906323b872dd906064016020604051808303816000875af115801561208a573d6000803e3d6000fd5b505050506040513d601f19601f820116820180604052508101906120ae91906158a7565b6120ca5760405162461bcd60e51b8152600401610b93906158c4565b600d546040516370a0823160e01b81523060048201526000916001600160a01b0316906370a0823190602401602060405180830381865afa158015612113573d6000803e3d6000fd5b505050506040513d601f19601f820116820180604052508101906121379190615a24565b90506121438383615a3d565b81101561218d5760405162461bcd60e51b81526020600482015260186024820152770a8e4c2dce6cccae440c2dadeeadce840dad2e6dac2e8c6d60431b6044820152606401610b93565b6003840154845460008781526010602052604081206001810180546001600160a01b039094169391926121bf83615a50565b90915550506000888152600e60205260409020600201546001820154106122375780548160006121ee83615a50565b9091555050600060018201558054604080518a815260208101929092527f2ee63a65823306caa71f76a6f1fbc130f9932419aca12e4bc61488794c0fe842910160405180910390a15b80546004880155600387018890556001600160a01b0382161580159061227757506001600160a01b0382166000908152600f602052604090206003015488115b156122c35760408051848152602081018a905233916001600160a01b038516917fbfd166cf9457200d670bc504b21c561aee122260cb8c421fcf3b6d1d94c047f4910160405180910390a35b6122cd8683613c1e565b60006122da336000611afc565b6000818152601260209081526040918290206003018c9055845482518881529182018d905281830152905191925033917f7b0a041091c494f9b4b51e2e436cda1e0459c080eaec80071a9f465cb1f0f9e59181900360600190a25050505050505050610e176001600b55565b600061235160085490565b821061237a5760405163295f44f760e21b81526000600482015260248101839052604401610b93565b6008828154811061238d5761238d615b1b565b90600052602060002001549050919050565b6123a7613ad8565b60008151116123f85760405162461bcd60e51b815260206004820152601860248201527f42617365205552492063616e6e6f7420626520656d70747900000000000000006044820152606401610b93565b601a610b598282615938565b600061094e82613a92565b60006001600160a01b03821661243b576040516322718ad960e21b815260006004820152602401610b93565b506001600160a01b031660009081526003602052604090205490565b61245f613ad8565b6124696000613e8b565b565b612473613ad8565b6001600160a01b0381166124c95760405162461bcd60e51b815260206004820152601a60248201527f496e76616c6964207072696365206665656420616464726573730000000000006044820152606401610b93565b601b80546001600160a01b0319166001600160a01b0383169081179091556040517fe5b20b8497e4f3e2435ef9c20e2e26b47497ee13745ce1c681ad6640653119e690600090a250565b606060018054610aa29061581b565b610b59338383613edd565b612535613ad8565b61253d613b05565b60175481111561258b5760405162461bcd60e51b8152602060048201526019602482015278496e73756666696369656e742066756e642062616c616e636560381b6044820152606401610b93565b8060176000828254610d589190615894565b600e60205260009081526040902080546001820180549192916125bf9061581b565b80601f01602080910402602001604051908101604052809291908181526020018280546125eb9061581b565b80156126385780601f1061260d57610100808354040283529160200191612638565b820191906000526020600020905b81548152906001019060200180831161261b57829003601f168201915b50505050600283015460039093015491929160ff16905084565b61265d84848461111c565b6111a13385858585613f7c565b6060806060600080600061267d87612404565b90506000601260008981526020019081526020016000206040518060a00160405290816000820180546126af9061581b565b80601f01602080910402602001604051908101604052809291908181526020018280546126db9061581b565b80156127285780601f106126fd57610100808354040283529160200191612728565b820191906000526020600020905b81548152906001019060200180831161270b57829003601f168201915b505050505081526020016001820180546127419061581b565b80601f016020809104026020016040519081016040528092919081815260200182805461276d9061581b565b80156127ba5780601f1061278f576101008083540402835291602001916127ba565b820191906000526020600020905b81548152906001019060200180831161279d57829003601f168201915b505050505081526020016002820180546127d39061581b565b80601f01602080910402602001604051908101604052809291908181526020018280546127ff9061581b565b801561284c5780601f106128215761010080835404028352916020019161284c565b820191906000526020600020905b81548152906001019060200180831161282f57829003601f168201915b505050505081526020016003820154815260200160048201548152505090508060000151816020015182604001518360600151846080015196509650965096509650505091939590929450565b600080600080600080600080601e54116128b45760006128d0565b4262015180601e546128c69190615a3d565b6128d09190615894565b601b54600d546040516370a0823160e01b8152306004820152929350600160a01b90910460ff16916001600160a01b03909116906370a0823190602401602060405180830381865afa15801561292a573d6000803e3d6000fd5b505050506040513d601f19601f8201168201806040525081019061294e9190615a24565b600854601454601e54939b929a50909850965090151594509092509050565b612975613ad8565b61297d613b05565b806129c05760405162461bcd60e51b8152602060048201526013602482015272456d707479207265717565737420617272617960681b6044820152606401610b93565b6014811115612a055760405162461bcd60e51b8152602060048201526011602482015270546f6f206d616e7920726571756573747360781b6044820152606401610b93565b6000805b82811015612bd1576000848483818110612a2557612a25615b1b565b612a3b9260206060909202019081019150615251565b6001600160a01b031603612a855760405162461bcd60e51b8152602060048201526011602482015270125b9d985b1a59081c9958da5c1a595b9d607a1b6044820152606401610b93565b6000848483818110612a9957612a99615b1b565b9050606002016020013511612ae15760405162461bcd60e51b815260206004820152600e60248201526d125b9d985b1a5908185b5bdd5b9d60921b6044820152606401610b93565b6002848483818110612af557612af5615b1b565b905060600201604001351115612b445760405162461bcd60e51b8152602060048201526014602482015273496e76616c69642062616c616e6365207479706560601b6044820152606401610b93565b838382818110612b5657612b56615b1b565b9050606002016020013582612b6b9190615a3d565b9150838382818110612b7f57612b7f615b1b565b90506060020160200135821015612bc95760405162461bcd60e51b815260206004820152600e60248201526d4f766572666c6f7720636865636b60901b6044820152606401610b93565b600101612a09565b5060008080805b85811015612e465736878783818110612bf357612bf3615b1b565b90506060020190508060400135600003612c8e5760155481602001351115612c5d5760405162461bcd60e51b815260206004820152601a60248201527f496e73756666696369656e74206f776e65722062616c616e63650000000000006044820152606401610b93565b612c6b602082013586615a3d565b9450806020013560156000828254612c839190615894565b90915550612d8f9050565b8060400135600103612d115760165481602001351115612ceb5760405162461bcd60e51b8152602060048201526018602482015277496e73756666696369656e74206665652062616c616e636560401b6044820152606401610b93565b612cf9602082013585615a3d565b9350806020013560166000828254612c839190615894565b60175481602001351115612d635760405162461bcd60e51b8152602060048201526019602482015278496e73756666696369656e742066756e642062616c616e636560381b6044820152606401610b93565b612d71602082013584615a3d565b9250806020013560176000828254612d899190615894565b90915550505b600d546001600160a01b031663a9059cbb612dad6020840184615251565b6040516001600160e01b031960e084901b1681526001600160a01b039091166004820152602084013560248201526044016020604051808303816000875af1158015612dfd573d6000803e3d6000fd5b505050506040513d601f19601f82011682018060405250810190612e2191906158a7565b612e3d5760405162461bcd60e51b8152600401610b93906158c4565b50600101612bd8565b5060408051848152602081018490529081018290527f85860c6261f728c2abba8cd94008bcc6e010b1f3eb29c24ceb95c8499e8742e59060600160405180910390a150505050610b596001600b55565b612e9e613ad8565b60048114612eee5760405162461bcd60e51b815260206004820152601d60248201527f4d656d6265727320706572206379636c65206e6f7420616c6c6f7765640000006044820152606401610b93565b6000825111612f365760405162461bcd60e51b81526020600482015260146024820152734e616d652063616e6e6f7420626520656d70747960601b6044820152606401610b93565b60008311612f865760405162461bcd60e51b815260206004820152601f60248201527f5072696365206d7573742062652067726561746572207468616e207a65726f006044820152606401610b93565b611c8e8383836140a7565b612f99613ad8565b42601e8190556040519081527f6c51e0e9648746b65a27425fd08714243ff8799934a67ee370cde94eb5e4150390602001611c69565b60606000612fdc83612404565b90506000601260008581526020019081526020016000206040518060a001604052908160008201805461300e9061581b565b80601f016020809104026020016040519081016040528092919081815260200182805461303a9061581b565b80156130875780601f1061305c57610100808354040283529160200191613087565b820191906000526020600020905b81548152906001019060200180831161306a57829003601f168201915b505050505081526020016001820180546130a09061581b565b80601f01602080910402602001604051908101604052809291908181526020018280546130cc9061581b565b80156131195780601f106130ee57610100808354040283529160200191613119565b820191906000526020600020905b8154815290600101906020018083116130fc57829003601f168201915b505050505081526020016002820180546131329061581b565b80601f016020809104026020016040519081016040528092919081815260200182805461315e9061581b565b80156131ab5780601f10613180576101008083540402835291602001916131ab565b820191906000526020600020905b81548152906001019060200180831161318e57829003601f168201915b50505091835250506003828101546020808401919091526004938401546040938401526001600160a01b038088166000908152600f8352849020845160c08101865281549092168252600181015482840152600281015482860152928301546060820181905294830154608082015260059092015460a0830152840151918401518451949550909361326793613240906141a3565b6040516020016132539493929190615b31565b6040516020818303038152906040526142cf565b6040516020016132779190615c38565b6040516020818303038152906040529350505050919050565b600080600080841180156132a657506014548411155b6132c25760405162461bcd60e51b8152600401610b9390615855565b5050506000818152601060209081526040808320815180830183528154808252600190920154908401819052948452600e909252909120600201549092565b60008060008060008061331360085490565b6018546017546016546015546133299190615a3d565b6133339190615a3d565b61333d9190615a3d565b601854601554601654601754949b939a50919850965094509092509050565b613364613ad8565b61336c613b05565b6000601e54116133be5760405162461bcd60e51b815260206004820152601760248201527f4e6f207769746864726177616c207265717565737465640000000000000000006044820152606401610b93565b62015180601e546133cf9190615a3d565b4210156134155760405162461bcd60e51b8152602060048201526014602482015273151a5b595b1bd8dac81b9bdd08195e1c1a5c995960621b6044820152606401610b93565b600d546040516370a0823160e01b81523060048201526000916001600160a01b0316906370a0823190602401602060405180830381865afa15801561345e573d6000803e3d6000fd5b505050506040513d601f19601f820116820180604052508101906134829190615a24565b9050600081116134c95760405162461bcd60e51b81526020600482015260126024820152714e6f2066756e647320617661696c61626c6560701b6044820152606401610b93565b6000601e81905560158190556016819055601755600d546001600160a01b031663a9059cbb613500600a546001600160a01b031690565b6040516001600160e01b031960e084901b1681526001600160a01b039091166004820152602481018490526044016020604051808303816000875af115801561354d573d6000803e3d6000fd5b505050506040513d601f19601f8201168201806040525081019061357191906158a7565b61358d5760405162461bcd60e51b8152600401610b93906158c4565b600a546001600160a01b03166001600160a01b03167f5fafa99d0643513820be26656b45130b01e1c03062e1266bf36f88cbd3bd9695826040516135d391815260200190565b60405180910390a2506124696001600b55565b6001600160a01b03918216600090815260056020908152604080832093909416825291909152205460ff1690565b61361c613ad8565b6001600160a01b03811661364657604051631e4fbdf760e01b815260006004820152602401610b93565b610e1781613e8b565b601360205260009081526040902080546136689061581b565b80601f01602080910402602001604051908101604052809291908181526020018280546136949061581b565b80156136e15780601f106136b6576101008083540402835291602001916136e1565b820191906000526020600020905b8154815290600101906020018083116136c457829003601f168201915b505050505081565b6136f1613b05565b601b54600160a01b900460ff161561371b5760405162461bcd60e51b8152600401610b93906159f8565b60006137263361240f565b116137625760405162461bcd60e51b815260206004820152600c60248201526b2737ba10309036b2b6b132b960a11b6044820152606401610b93565b336000908152600f6020526040902060058101546137839062278d00615a3d565b42116137d15760405162461bcd60e51b815260206004820152601f60248201527f4578697420756e617661696c61626c65206265666f72652033302064617973006044820152606401610b93565b60038101546000908152600e60205260408120549060646137f383601e615c7d565b6137fd9190615caa565b905080601754101561385d5760405162461bcd60e51b8152602060048201526024808201527f496e73756666696369656e742066756e642062616c616e636520666f72207265604482015263199d5b9960e21b6064820152608401610b93565b806017600082825461386f9190615894565b90915550600090506138813382611afc565b600081815260126020526040812091925061389c82826151ad565b6138aa6001830160006151ad565b6138b86002830160006151ad565b506000600382018190556004909101556138d181614823565b336000818152600f602052604080822080546001600160a01b03191681556001810183905560028101839055600381018390556004808201849055600590910192909255600d54905163a9059cbb60e01b815291820192909252602481018490526001600160a01b039091169063a9059cbb906044016020604051808303816000875af1158015613966573d6000803e3d6000fd5b505050506040513d601f19601f8201168201806040525081019061398a91906158a7565b6139a65760405162461bcd60e51b8152600401610b93906158c4565b60405182815233907fe0c638b9625a325005e6284e1bc01fa3455c7bec5ae11bcf9de99160980ae9109060200160405180910390a2505050506124696001600b55565b6139f1613ad8565b600082118015613a0357506014548211155b613a1f5760405162461bcd60e51b8152600401610b9390615855565b6000918252600e6020526040909120600301805460ff1916911515919091179055565b60006001600160e01b031982166380ac58cd60e01b1480613a7357506001600160e01b03198216635b5e139f60e01b145b8061094e57506301ffc9a760e01b6001600160e01b031983161461094e565b6000818152600260205260408120546001600160a01b03168061094e57604051637e27328960e01b815260048101849052602401610b93565b611c8e838383600161485e565b600a546001600160a01b031633146124695760405163118cdaa760e01b8152336004820152602401610b93565b6002600b5403613b2857604051633ee5aeb560e01b815260040160405180910390fd5b6002600b55565b600080613b3d858585614964565b90506001600160a01b038116613b9a57613b9584600880546000838152600960205260408120829055600182018355919091527ff3f7a9fe364faab93b216da50a3214154f22a0a2b415b23a84c8169e8b636ee30155565b613bbd565b846001600160a01b0316816001600160a01b031614613bbd57613bbd8185614a5d565b6001600160a01b038516613bd957613bd484614ade565b613bfc565b846001600160a01b0316816001600160a01b031614613bfc57613bfc8585614b8d565b949350505050565b610b59828260405180602001604052806000815250614bdd565b60008211613c5f5760405162461bcd60e51b815260206004820152600e60248201526d125b9d985b1a5908185b5bdd5b9d60921b6044820152606401610b93565b336000908152600f60205260408120600301548190613c7d90614bf5565b90925090506064613c8e8284615a3d565b14613cd25760405162461bcd60e51b8152602060048201526014602482015273125b9d985b1a59081cda185c995cc81d1bdd185b60621b6044820152606401610b93565b60006064613ce08487615c7d565b613cea9190615caa565b905084811115613d3c5760405162461bcd60e51b815260206004820152601a60248201527f53686172652063616c63756c6174696f6e206f766572666c6f770000000000006044820152606401610b93565b6000613d488287615894565b905085811115613d9a5760405162461bcd60e51b815260206004820152601a60248201527f53686172652063616c63756c6174696f6e206f766572666c6f770000000000006044820152606401610b93565b60006064613da9605084615c7d565b613db39190615caa565b90506000613dc18284615894565b90508160156000828254613dd59190615a3d565b925050819055508060166000828254613dee9190615a3d565b90915550600090506064613e03603c87615c7d565b613e0d9190615caa565b90506000613e1b8287615894565b90508060176000828254613e2f9190615a3d565b909155505060408051858152602081018590529081018290527fdaf6233a382145376035341e71f8a04305f7e323d0fe3e58c908cf0a26b76df99060600160405180910390a1613e7f8983614c3f565b50505050505050505050565b600a80546001600160a01b038381166001600160a01b0319831681179093556040519116919082907f8be0079c531659141344cd1fd0a4f28419497f9722a3daafe3b4186f6b6457e090600090a35050565b6001600160a01b038216613f0f57604051630b61174360e31b81526001600160a01b0383166004820152602401610b93565b6001600160a01b03838116600081815260056020908152604080832094871680845294825291829020805460ff191686151590811790915591519182527f17307eab39ab6107e8899845ad3d59bd9653f200f220920489ca2b5937696c31910160405180910390a3505050565b6001600160a01b0383163b156140a057604051630a85bd0160e11b81526001600160a01b0384169063150b7a0290613fbe908890889087908790600401615cbe565b6020604051808303816000875af1925050508015613ff9575060408051601f3d908101601f19168201909252613ff691810190615cfb565b60015b614062573d808015614027576040519150601f19603f3d011682016040523d82523d6000602084013e61402c565b606091505b50805160000361405a57604051633250574960e11b81526001600160a01b0385166004820152602401610b93565b805181602001fd5b6001600160e01b03198116630a85bd0160e11b1461409e57604051633250574960e11b81526001600160a01b0385166004820152602401610b93565b505b5050505050565b601480549060006140b783615a50565b90915550506040805160808101825284815260208082018581528284018590526001606084018190526014546000908152600e9093529390912082518155905191929091908201906141099082615938565b5060408281015160028301556060909201516003909101805460ff19169115159190911790558051808201825260018082526000602080840182815260148054845260109092529185902093518455905192909101919091555490517f9e577f4ac885b769646db304f554e3503ca6b65d2bf0dc1aab2d40f42dca44d59161419691859087908690615d18565b60405180910390a1505050565b6060816000036141ca5750506040805180820190915260018152600360fc1b602082015290565b8160005b81156141f457806141de81615a50565b91506141ed9050600a83615caa565b91506141ce565b60008167ffffffffffffffff81111561420f5761420f615493565b6040519080825280601f01601f191660200182016040528015614239576020820181803683370190505b509050815b85156142c65761424f600182615894565b9050600061425e600a88615caa565b61426990600a615c7d565b6142739088615894565b61427e906030615d44565b905060008160f81b90508084848151811061429b5761429b615b1b565b60200101906001600160f81b031916908160001a9053506142bd600a89615caa565b9750505061423e565b50949350505050565b60606000604051806060016040528060408152602001615d88604091398351909150600081900361431157505060408051602081019091526000815292915050565b60006003614320836002615a3d565b61432a9190615caa565b614335906004615c7d565b905060008167ffffffffffffffff81111561435257614352615493565b6040519080825280601f01601f19166020018201604052801561437c576020820181803683370190505b5090506000805b8461438f836003615a3d565b11614596576000886143a2846002615a3d565b815181106143b2576143b2615b1b565b016020015160f81c60088a6143c8866001615a3d565b815181106143d8576143d8615b1b565b602001015160f81c60f81b60f81c60ff16901b60108b86815181106143ff576143ff615b1b565b602001015160f81c60f81b60f81c60ff16901b1717905086601282901c603f168151811061442f5761442f615b1b565b01602001516001600160f81b031916848361444981615a50565b94508151811061445b5761445b615b1b565b60200101906001600160f81b031916908160001a90535086600c82901c603f168151811061448b5761448b615b1b565b01602001516001600160f81b03191684836144a581615a50565b9450815181106144b7576144b7615b1b565b60200101906001600160f81b031916908160001a90535086600682901c603f16815181106144e7576144e7615b1b565b01602001516001600160f81b031916848361450181615a50565b94508151811061451357614513615b1b565b60200101906001600160f81b031916908160001a9053508681603f168151811061453f5761453f615b1b565b01602001516001600160f81b031916848361455981615a50565b94508151811061456b5761456b615b1b565b60200101906001600160f81b031916908160001a90535061458f9050600383615a3d565b9150614383565b8482101561481757600060108984815181106145b4576145b4615b1b565b016020015160f81c901b9050856145cc846001615a3d565b10156145fc576008896145e0856001615a3d565b815181106145f0576145f0615b1b565b016020015160f81c901b175b86601282901c603f168151811061461557614615615b1b565b01602001516001600160f81b031916848361462f81615a50565b94508151811061464157614641615b1b565b60200101906001600160f81b031916908160001a90535086600c82901c603f168151811061467157614671615b1b565b01602001516001600160f81b031916848361468b81615a50565b94508151811061469d5761469d615b1b565b60200101906001600160f81b031916908160001a905350856146c0846001615a3d565b101561477f5786600682901c603f16815181106146df576146df615b1b565b01602001516001600160f81b03191684836146f981615a50565b94508151811061470b5761470b615b1b565b60200101906001600160f81b031916908160001a9053508681603f168151811061473757614737615b1b565b01602001516001600160f81b031916848361475181615a50565b94508151811061476357614763615b1b565b60200101906001600160f81b031916908160001a905350614815565b86600682901c603f168151811061479857614798615b1b565b01602001516001600160f81b03191684836147b281615a50565b9450815181106147c4576147c4615b1b565b60200101906001600160f81b031916908160001a905350603d60f81b84836147eb81615a50565b9450815181106147fd576147fd615b1b565b60200101906001600160f81b031916908160001a9053505b505b50909695505050505050565b60006148326000836000613b2f565b90506001600160a01b038116610b5957604051637e27328960e01b815260048101839052602401610b93565b808061487257506001600160a01b03821615155b1561493457600061488284613a92565b90506001600160a01b038316158015906148ae5750826001600160a01b0316816001600160a01b031614155b80156148c157506148bf81846135e6565b155b156148ea5760405163a9fbf51f60e01b81526001600160a01b0384166004820152602401610b93565b81156149325783856001600160a01b0316826001600160a01b03167f8c5be1e5ebec7d5bd14f71427d1e84f3dd0314c0f7b2291e5b200ac8c7c3b92560405160405180910390a45b505b5050600090815260046020526040902080546001600160a01b0319166001600160a01b0392909216919091179055565b6000828152600260205260408120546001600160a01b039081169083161561499157614991818486614cee565b6001600160a01b038116156149cf576149ae60008560008061485e565b6001600160a01b038116600090815260036020526040902080546000190190555b6001600160a01b038516156149fe576001600160a01b0385166000908152600360205260409020805460010190555b60008481526002602052604080822080546001600160a01b0319166001600160a01b0389811691821790925591518793918516917fddf252ad1be2c89b69c2b068fc378daa952ba7f163c4a11628f55a4df523b3ef91a4949350505050565b6000614a688361240f565b6000838152600760209081526040808320546001600160a01b0388168452600690925290912091925090818314614abf57600083815260208281526040808320548584528184208190558352600790915290208290555b6000938452600760209081526040808620869055938552525081205550565b600854600090614af090600190615894565b60008381526009602052604081205460088054939450909284908110614b1857614b18615b1b565b906000526020600020015490508060088381548110614b3957614b39615b1b565b6000918252602080832090910192909255828152600990915260408082208490558582528120556008805480614b7157614b71615d5d565b6001900381819060005260206000200160009055905550505050565b60006001614b9a8461240f565b614ba49190615894565b6001600160a01b039093166000908152600660209081526040808320868452825280832085905593825260079052919091209190915550565b614be78383614d52565b611c8e336000858585613f7c565b60008060048311614c0b57506032928392509050565b60088311614c1f5750603792602d92509050565b600c8311614c335750603a92602a92509050565b50603c92602892509050565b6001600160a01b03821615614cd357336000908152600f60205260408082206003908101546001600160a01b0386168452919092209091015410614cc157614c88338383614db7565b6001600160a01b0382166000908152600f602052604081206001908101805491929091614cb6908490615a3d565b90915550610b599050565b8060156000828254614cb69190615a3d565b8060156000828254614ce59190615a3d565b90915550505050565b614cf9838383614fa1565b611c8e576001600160a01b038316614d2757604051637e27328960e01b815260048101829052602401610b93565b60405163177e802f60e01b81526001600160a01b038316600482015260248101829052604401610b93565b6001600160a01b038216614d7c57604051633250574960e11b815260006004820152602401610b93565b6000614d8a83836000613b2f565b90506001600160a01b03811615611c8e576040516339e3563760e11b815260006004820152602401610b93565b601d5460ff1615614dff5760405162461bcd60e51b81526020600482015260126024820152712932b2b73a3930b73a103a3930b739b332b960711b6044820152606401610b93565b601d805460ff191660011790556001600160a01b038281166000818152600f602052604090819020600d54915163a9059cbb60e01b815260048101939093526024830185905292849291169063a9059cbb906044016020604051808303816000875af1158015614e73573d6000803e3d6000fd5b505050506040513d601f19601f82011682018060405250810190614e9791906158a7565b614ee35760405162461bcd60e51b815260206004820152601e60248201527f55534454207472616e7366657220746f2075706c696e65206661696c656400006044820152606401610b93565b80826002016000828254614ef79190615a3d565b925050819055508060186000828254614f109190615a3d565b92505081905550614f43858583604051806040016040528060088152602001671c9959995c9c985b60c21b815250615004565b836001600160a01b0316856001600160a01b03167f0a721ab4682ceb61c7e4d264ef879fc419a6d764b136e7d96ef54b2053c7567383604051614f8891815260200190565b60405180910390a35050601d805460ff19169055505050565b60006001600160a01b03831615801590613bfc5750826001600160a01b0316846001600160a01b03161480614fdb5750614fdb84846135e6565b80613bfc5750506000908152600460205260409020546001600160a01b03908116911614919050565b6001600160a01b0383166000908152601160205260408120805490919060321161503857615033603242615d73565b61503b565b81545b8254909150603211156150ea576040805160a0810182526001600160a01b0380891682528781166020808401918252938301888152426060850190815260808501898152885460018181018b5560008b815298909820875160059092020180549187166001600160a01b0319928316178155945197850180549890961697169690961790935551600282015590516003820155915190919060048201906150e29082615938565b50505061409e565b6040518060a00160405280876001600160a01b03168152602001866001600160a01b031681526020018581526020014281526020018481525082828154811061513557615135615b1b565b6000918252602091829020835160059092020180546001600160a01b039283166001600160a01b0319918216178255928401516001820180549190931693169290921790556040820151600282015560608201516003820155608082015160048201906151a29082615938565b505050505050505050565b5080546151b99061581b565b6000825580601f106151c9575050565b601f016020900490600052602060002090810190610e1791905b808211156151f757600081556001016151e3565b5090565b6001600160e01b031981168114610e1757600080fd5b60006020828403121561522357600080fd5b813561522e816151fb565b9392505050565b80356001600160a01b038116811461524c57600080fd5b919050565b60006020828403121561526357600080fd5b61522e82615235565b60005b8381101561528757818101518382015260200161526f565b50506000910152565b600081518084526152a881602086016020860161526c565b601f01601f19169290920160200192915050565b60006020808301818452808551808352604092508286019150828160051b87010184880160005b8381101561534f57888303603f19018552815180516001600160a01b03908116855288820151168885015286810151878501526060808201519085015260809081015160a09185018290529061533b81860183615290565b9689019694505050908601906001016152e3565b509098975050505050505050565b60208152600061522e6020830184615290565b60006020828403121561538257600080fd5b5035919050565b6000806040838503121561539c57600080fd5b6153a583615235565b946020939093013593505050565b600080604083850312156153c657600080fd5b50508035926020909101359150565b6001600160a01b03868116825285166020820152604081018490526060810183905260a06080820181905260009061540f90830184615290565b979650505050505050565b8015158114610e1757600080fd5b60006020828403121561543a57600080fd5b813561522e8161541a565b60a08152600061545860a0830188615290565b828103602084015261546a8188615290565b9050828103604084015261547e8187615290565b60608401959095525050608001529392505050565b634e487b7160e01b600052604160045260246000fd5b600067ffffffffffffffff808411156154c4576154c4615493565b604051601f8501601f19908116603f011681019082821181831017156154ec576154ec615493565b8160405280935085815286868601111561550557600080fd5b858560208301376000602087830101525050509392505050565b600082601f83011261553057600080fd5b61522e838335602085016154a9565b6000806040838503121561555257600080fd5b82359150602083013567ffffffffffffffff81111561557057600080fd5b61557c8582860161551f565b9150509250929050565b60008060006060848603121561559b57600080fd5b6155a484615235565b92506155b260208501615235565b9150604084013590509250925092565b600080604083850312156155d557600080fd5b823591506155e560208401615235565b90509250929050565b60006020828403121561560057600080fd5b813567ffffffffffffffff81111561561757600080fd5b613bfc8482850161551f565b6000806040838503121561563657600080fd5b61563f83615235565b9150602083013561564f8161541a565b809150509250929050565b8481526080602082015260006156736080830186615290565b60408301949094525090151560609091015292915050565b600080600080608085870312156156a157600080fd5b6156aa85615235565b93506156b860208601615235565b925060408501359150606085013567ffffffffffffffff8111156156db57600080fd5b8501601f810187136156ec57600080fd5b6156fb878235602084016154a9565b91505092959194509250565b6000806020838503121561571a57600080fd5b823567ffffffffffffffff8082111561573257600080fd5b818501915085601f83011261574657600080fd5b81358181111561575557600080fd5b86602060608302850101111561576a57600080fd5b60209290920196919550909350505050565b60008060006060848603121561579157600080fd5b83359250602084013567ffffffffffffffff8111156157af57600080fd5b6157bb8682870161551f565b925050604084013590509250925092565b600080604083850312156157df57600080fd5b6157e883615235565b91506155e560208401615235565b6000806040838503121561580957600080fd5b82359150602083013561564f8161541a565b600181811c9082168061582f57607f821691505b60208210810361584f57634e487b7160e01b600052602260045260246000fd5b50919050565b6020808252600f908201526e125b9d985b1a59081c1b185b881251608a1b604082015260600190565b634e487b7160e01b600052601160045260246000fd5b8181038181111561094e5761094e61587e565b6000602082840312156158b957600080fd5b815161522e8161541a565b6020808252601490820152731554d115081d1c985b9cd9995c8819985a5b195960621b604082015260600190565b601f821115611c8e57600081815260208120601f850160051c810160208610156159195750805b601f850160051c820191505b8181101561409e57828155600101615925565b815167ffffffffffffffff81111561595257615952615493565b61596681615960845461581b565b846158f2565b602080601f83116001811461599b57600084156159835750858301515b600019600386901b1c1916600185901b17855561409e565b600085815260208120601f198616915b828110156159ca578886015182559484019460019091019084016159ab565b50858210156159e85787850151600019600388901b60f8161c191681555b5050505050600190811b01905550565b60208082526012908201527110dbdb9d1c9858dd081a5cc81c185d5cd95960721b604082015260600190565b600060208284031215615a3657600080fd5b5051919050565b8082018082111561094e5761094e61587e565b600060018201615a6257615a6261587e565b5060010190565b7f43727970746f204d656d62657273686970204e4654202d20000000000000000081526000601860008454615a9d8161581b565b60018281168015615ab55760018114615ace57615b01565b60ff198416888701528215158302880186019450615b01565b8860005260208060002060005b85811015615af65781548b82018a0152908401908201615adb565b505050858389010194505b50506410283630b760d91b83525050600501949350505050565b634e487b7160e01b600052603260045260246000fd5b683d913730b6b2911d1160b91b81528451600090615b56816009850160208a0161526c565b71111610113232b9b1b934b83a34b7b7111d1160711b6009918401918201528551615b8881601b840160208a0161526c565b6b1116101134b6b0b3b2911d1160a11b601b92909101918201528451615bb581602784016020890161526c565b7f222c202261747472696275746573223a205b7b2274726169745f74797065223a602792909101918201527f2022506c616e204c6576656c222c202276616c7565223a20220000000000000060478201528351615c1981606084016020880161526c565b63227d5d7d60e01b606092909101918201526064019695505050505050565b7f646174613a6170706c69636174696f6e2f6a736f6e3b6261736536342c000000815260008251615c7081601d85016020870161526c565b91909101601d0192915050565b808202811582820484141761094e5761094e61587e565b634e487b7160e01b600052601260045260246000fd5b600082615cb957615cb9615c94565b500490565b6001600160a01b0385811682528416602082015260408101839052608060608201819052600090615cf190830184615290565b9695505050505050565b600060208284031215615d0d57600080fd5b815161522e816151fb565b848152608060208201526000615d316080830186615290565b6040830194909452506060015292915050565b60ff818116838216019081111561094e5761094e61587e565b634e487b7160e01b600052603160045260246000fd5b600082615d8257615d82615c94565b50069056fe4142434445464748494a4b4c4d4e4f505152535455565758595a6162636465666768696a6b6c6d6e6f707172737475767778797a303132333435363738392b2fa2646970667358221220d95c1c6b1e207e80eeb81f072b0ac1ca1566dc345e841b4a259904abec9dded464736f6c63430008140033",
  "linkReferences": {},
  "deployedLinkReferences": {}
}